{
  "_format": "hh-sol-artifact-1",
  "contractName": "myNFT",
  "sourceName": "contracts/myNFT.sol",
  "abi": [
    {
      "inputs": [],
      "stateMutability": "nonpayable",
      "type": "constructor"
    },
    {
      "anonymous": false,
      "inputs": [
        {
          "indexed": true,
          "internalType": "address",
          "name": "owner",
          "type": "address"
        },
        {
          "indexed": true,
          "internalType": "address",
          "name": "approved",
          "type": "address"
        },
        {
          "indexed": true,
          "internalType": "uint256",
          "name": "tokenId",
          "type": "uint256"
        }
      ],
      "name": "Approval",
      "type": "event"
    },
    {
      "anonymous": false,
      "inputs": [
        {
          "indexed": true,
          "internalType": "address",
          "name": "owner",
          "type": "address"
        },
        {
          "indexed": true,
          "internalType": "address",
          "name": "operator",
          "type": "address"
        },
        {
          "indexed": false,
          "internalType": "bool",
          "name": "approved",
          "type": "bool"
        }
      ],
      "name": "ApprovalForAll",
      "type": "event"
    },
    {
      "anonymous": false,
      "inputs": [
        {
          "indexed": false,
          "internalType": "address",
          "name": "sender",
          "type": "address"
        },
        {
          "indexed": false,
          "internalType": "uint256",
          "name": "tokenId",
          "type": "uint256"
        }
      ],
      "name": "NFTMinted",
      "type": "event"
    },
    {
      "anonymous": false,
      "inputs": [
        {
          "indexed": true,
          "internalType": "address",
          "name": "from",
          "type": "address"
        },
        {
          "indexed": true,
          "internalType": "address",
          "name": "to",
          "type": "address"
        },
        {
          "indexed": true,
          "internalType": "uint256",
          "name": "tokenId",
          "type": "uint256"
        }
      ],
      "name": "Transfer",
      "type": "event"
    },
    {
      "anonymous": false,
      "inputs": [
        {
          "indexed": false,
          "internalType": "uint256",
          "name": "nos",
          "type": "uint256"
        }
      ],
      "name": "mintedSoFar",
      "type": "event"
    },
    {
      "inputs": [
        {
          "internalType": "address",
          "name": "to",
          "type": "address"
        },
        {
          "internalType": "uint256",
          "name": "tokenId",
          "type": "uint256"
        }
      ],
      "name": "approve",
      "outputs": [],
      "stateMutability": "nonpayable",
      "type": "function"
    },
    {
      "inputs": [
        {
          "internalType": "address",
          "name": "owner",
          "type": "address"
        }
      ],
      "name": "balanceOf",
      "outputs": [
        {
          "internalType": "uint256",
          "name": "",
          "type": "uint256"
        }
      ],
      "stateMutability": "view",
      "type": "function"
    },
    {
      "inputs": [
        {
          "internalType": "uint256",
          "name": "tokenId",
          "type": "uint256"
        }
      ],
      "name": "getApproved",
      "outputs": [
        {
          "internalType": "address",
          "name": "",
          "type": "address"
        }
      ],
      "stateMutability": "view",
      "type": "function"
    },
    {
      "inputs": [
        {
          "internalType": "address",
          "name": "owner",
          "type": "address"
        },
        {
          "internalType": "address",
          "name": "operator",
          "type": "address"
        }
      ],
      "name": "isApprovedForAll",
      "outputs": [
        {
          "internalType": "bool",
          "name": "",
          "type": "bool"
        }
      ],
      "stateMutability": "view",
      "type": "function"
    },
    {
      "inputs": [],
      "name": "makeNFT",
      "outputs": [],
      "stateMutability": "nonpayable",
      "type": "function"
    },
    {
      "inputs": [],
      "name": "maxSupply",
      "outputs": [
        {
          "internalType": "uint256",
          "name": "",
          "type": "uint256"
        }
      ],
      "stateMutability": "view",
      "type": "function"
    },
    {
      "inputs": [],
      "name": "name",
      "outputs": [
        {
          "internalType": "string",
          "name": "",
          "type": "string"
        }
      ],
      "stateMutability": "view",
      "type": "function"
    },
    {
      "inputs": [],
      "name": "noOfMinted",
      "outputs": [
        {
          "internalType": "uint256",
          "name": "",
          "type": "uint256"
        }
      ],
      "stateMutability": "view",
      "type": "function"
    },
    {
      "inputs": [
        {
          "internalType": "uint256",
          "name": "tokenId",
          "type": "uint256"
        }
      ],
      "name": "ownerOf",
      "outputs": [
        {
          "internalType": "address",
          "name": "",
          "type": "address"
        }
      ],
      "stateMutability": "view",
      "type": "function"
    },
    {
      "inputs": [
        {
          "internalType": "address",
          "name": "from",
          "type": "address"
        },
        {
          "internalType": "address",
          "name": "to",
          "type": "address"
        },
        {
          "internalType": "uint256",
          "name": "tokenId",
          "type": "uint256"
        }
      ],
      "name": "safeTransferFrom",
      "outputs": [],
      "stateMutability": "nonpayable",
      "type": "function"
    },
    {
      "inputs": [
        {
          "internalType": "address",
          "name": "from",
          "type": "address"
        },
        {
          "internalType": "address",
          "name": "to",
          "type": "address"
        },
        {
          "internalType": "uint256",
          "name": "tokenId",
          "type": "uint256"
        },
        {
          "internalType": "bytes",
          "name": "_data",
          "type": "bytes"
        }
      ],
      "name": "safeTransferFrom",
      "outputs": [],
      "stateMutability": "nonpayable",
      "type": "function"
    },
    {
      "inputs": [
        {
          "internalType": "address",
          "name": "operator",
          "type": "address"
        },
        {
          "internalType": "bool",
          "name": "approved",
          "type": "bool"
        }
      ],
      "name": "setApprovalForAll",
      "outputs": [],
      "stateMutability": "nonpayable",
      "type": "function"
    },
    {
      "inputs": [
        {
          "internalType": "bytes4",
          "name": "interfaceId",
          "type": "bytes4"
        }
      ],
      "name": "supportsInterface",
      "outputs": [
        {
          "internalType": "bool",
          "name": "",
          "type": "bool"
        }
      ],
      "stateMutability": "view",
      "type": "function"
    },
    {
      "inputs": [],
      "name": "symbol",
      "outputs": [
        {
          "internalType": "string",
          "name": "",
          "type": "string"
        }
      ],
      "stateMutability": "view",
      "type": "function"
    },
    {
      "inputs": [
        {
          "internalType": "uint256",
          "name": "tokenId",
          "type": "uint256"
        }
      ],
      "name": "tokenURI",
      "outputs": [
        {
          "internalType": "string",
          "name": "",
          "type": "string"
        }
      ],
      "stateMutability": "view",
      "type": "function"
    },
    {
      "inputs": [
        {
          "internalType": "address",
          "name": "from",
          "type": "address"
        },
        {
          "internalType": "address",
          "name": "to",
          "type": "address"
        },
        {
          "internalType": "uint256",
          "name": "tokenId",
          "type": "uint256"
        }
      ],
      "name": "transferFrom",
      "outputs": [],
      "stateMutability": "nonpayable",
      "type": "function"
    }
  ],
  "bytecode": "0x6080604052600560075560006008553480156200001b57600080fd5b506040518060400160405280600781526020017f457965204e4654000000000000000000000000000000000000000000000000008152506040518060400160405280600381526020017f45594500000000000000000000000000000000000000000000000000000000008152508160009080519060200190620000a0929190620001d9565b508060019080519060200190620000b9929190620001d9565b505050620001076040518060400160405280601a81526020017f476f696e6720746f206275696c6420616e2045504943204e46540000000000008152506200010d60201b62000c5d1760201c565b620003b6565b620001ad81604051602401620001249190620002ca565b6040516020818303038152906040527f41304fac000000000000000000000000000000000000000000000000000000007bffffffffffffffffffffffffffffffffffffffffffffffffffffffff19166020820180517bffffffffffffffffffffffffffffffffffffffffffffffffffffffff8381831617835250505050620001b060201b60201c565b50565b60008151905060006a636f6e736f6c652e6c6f679050602083016000808483855afa5050505050565b828054620001e79062000340565b90600052602060002090601f0160209004810192826200020b576000855562000257565b82601f106200022657805160ff191683800117855562000257565b8280016001018555821562000257579182015b828111156200025657825182559160200191906001019062000239565b5b5090506200026691906200026a565b5090565b5b80821115620002855760008160009055506001016200026b565b5090565b60006200029682620002ee565b620002a28185620002f9565b9350620002b48185602086016200030a565b620002bf81620003a5565b840191505092915050565b60006020820190508181036000830152620002e6818462000289565b905092915050565b600081519050919050565b600082825260208201905092915050565b60005b838110156200032a5780820151818401526020810190506200030d565b838111156200033a576000848401525b50505050565b600060028204905060018216806200035957607f821691505b6020821081141562000370576200036f62000376565b5b50919050565b7f4e487b7100000000000000000000000000000000000000000000000000000000600052602260045260246000fd5b6000601f19601f8301169050919050565b612de080620003c66000396000f3fe608060405234801561001057600080fd5b50600436106101005760003560e01c806395d89b4111610097578063c57a59f411610066578063c57a59f414610297578063c87b56dd146102b5578063d5abeb01146102e5578063e985e9c51461030357610100565b806395d89b4114610237578063a22cb46514610255578063b036b4bd14610271578063b88d4fde1461027b57610100565b806323b872dd116100d357806323b872dd1461019f57806342842e0e146101bb5780636352211e146101d757806370a082311461020757610100565b806301ffc9a71461010557806306fdde0314610135578063081812fc14610153578063095ea7b314610183575b600080fd5b61011f600480360381019061011a9190611dcd565b610333565b60405161012c919061221f565b60405180910390f35b61013d610415565b60405161014a919061223a565b60405180910390f35b61016d60048036038101906101689190611e1f565b6104a7565b60405161017a919061218f565b60405180910390f35b61019d60048036038101906101989190611d91565b61052c565b005b6101b960048036038101906101b49190611c8b565b610644565b005b6101d560048036038101906101d09190611c8b565b6106a4565b005b6101f160048036038101906101ec9190611e1f565b6106c4565b6040516101fe919061218f565b60405180910390f35b610221600480360381019061021c9190611c26565b610776565b60405161022e919061247c565b60405180910390f35b61023f61082e565b60405161024c919061223a565b60405180910390f35b61026f600480360381019061026a9190611d55565b6108c0565b005b6102796108d6565b005b61029560048036038101906102909190611cda565b610a09565b005b61029f610a6b565b6040516102ac919061247c565b60405180910390f35b6102cf60048036038101906102ca9190611e1f565b610a71565b6040516102dc919061223a565b60405180910390f35b6102ed610bc3565b6040516102fa919061247c565b60405180910390f35b61031d60048036038101906103189190611c4f565b610bc9565b60405161032a919061221f565b60405180910390f35b60007f80ac58cd000000000000000000000000000000000000000000000000000000007bffffffffffffffffffffffffffffffffffffffffffffffffffffffff1916827bffffffffffffffffffffffffffffffffffffffffffffffffffffffff191614806103fe57507f5b5e139f000000000000000000000000000000000000000000000000000000007bffffffffffffffffffffffffffffffffffffffffffffffffffffffff1916827bffffffffffffffffffffffffffffffffffffffffffffffffffffffff1916145b8061040e575061040d82610cf6565b5b9050919050565b606060008054610424906126a1565b80601f0160208091040260200160405190810160405280929190818152602001828054610450906126a1565b801561049d5780601f106104725761010080835404028352916020019161049d565b820191906000526020600020905b81548152906001019060200180831161048057829003601f168201915b5050505050905090565b60006104b282610d60565b6104f1576040517f08c379a00000000000000000000000000000000000000000000000000000000081526004016104e8906123bc565b60405180910390fd5b6004600083815260200190815260200160002060009054906101000a900473ffffffffffffffffffffffffffffffffffffffff169050919050565b6000610537826106c4565b90508073ffffffffffffffffffffffffffffffffffffffff168373ffffffffffffffffffffffffffffffffffffffff1614156105a8576040517f08c379a000000000000000000000000000000000000000000000000000000000815260040161059f9061241c565b60405180910390fd5b8073ffffffffffffffffffffffffffffffffffffffff166105c7610dcc565b73ffffffffffffffffffffffffffffffffffffffff1614806105f657506105f5816105f0610dcc565b610bc9565b5b610635576040517f08c379a000000000000000000000000000000000000000000000000000000000815260040161062c906122fc565b60405180910390fd5b61063f8383610dd4565b505050565b61065561064f610dcc565b82610e8d565b610694576040517f08c379a000000000000000000000000000000000000000000000000000000000815260040161068b9061243c565b60405180910390fd5b61069f838383610f6b565b505050565b6106bf83838360405180602001604052806000815250610a09565b505050565b6000806002600084815260200190815260200160002060009054906101000a900473ffffffffffffffffffffffffffffffffffffffff169050600073ffffffffffffffffffffffffffffffffffffffff168173ffffffffffffffffffffffffffffffffffffffff16141561076d576040517f08c379a00000000000000000000000000000000000000000000000000000000081526004016107649061233c565b60405180910390fd5b80915050919050565b60008073ffffffffffffffffffffffffffffffffffffffff168273ffffffffffffffffffffffffffffffffffffffff1614156107e7576040517f08c379a00000000000000000000000000000000000000000000000000000000081526004016107de9061231c565b60405180910390fd5b600360008373ffffffffffffffffffffffffffffffffffffffff1673ffffffffffffffffffffffffffffffffffffffff168152602001908152602001600020549050919050565b60606001805461083d906126a1565b80601f0160208091040260200160405190810160405280929190818152602001828054610869906126a1565b80156108b65780601f1061088b576101008083540402835291602001916108b6565b820191906000526020600020905b81548152906001019060200180831161089957829003601f168201915b5050505050905090565b6108d26108cb610dcc565b83836111c7565b5050565b6000600754141561091c576040517f08c379a00000000000000000000000000000000000000000000000000000000081526004016109139061245c565b60405180910390fd5b60006109286009611334565b90506109343382611342565b61095681604051806060016040528060368152602001612d7560369139611360565b61096060096113d4565b60016007600082825461097391906125b7565b9250508190555060016008600082825461098d9190612530565b925050819055507f4cc0a9c4a99ddc700de1af2c9f916a7cbfdb71f14801ccff94061ad1ef8a804033826040516109c59291906121f6565b60405180910390a17fae89fa2b7d197f2fbf2de1058899dca23084a80ffd70e7da6d675eb4f188173f6008546040516109fe919061247c565b60405180910390a150565b610a1a610a14610dcc565b83610e8d565b610a59576040517f08c379a0000000000000000000000000000000000000000000000000000000008152600401610a509061243c565b60405180910390fd5b610a65848484846113ea565b50505050565b60085481565b6060610a7c82610d60565b610abb576040517f08c379a0000000000000000000000000000000000000000000000000000000008152600401610ab29061239c565b60405180910390fd5b6000600660008481526020019081526020016000208054610adb906126a1565b80601f0160208091040260200160405190810160405280929190818152602001828054610b07906126a1565b8015610b545780601f10610b2957610100808354040283529160200191610b54565b820191906000526020600020905b815481529060010190602001808311610b3757829003601f168201915b505050505090506000610b65611446565b9050600081511415610b7b578192505050610bbe565b600082511115610bb0578082604051602001610b9892919061216b565b60405160208183030381529060405292505050610bbe565b610bb98461145d565b925050505b919050565b60075481565b6000600560008473ffffffffffffffffffffffffffffffffffffffff1673ffffffffffffffffffffffffffffffffffffffff16815260200190815260200160002060008373ffffffffffffffffffffffffffffffffffffffff1673ffffffffffffffffffffffffffffffffffffffff16815260200190815260200160002060009054906101000a900460ff16905092915050565b610cf381604051602401610c71919061223a565b6040516020818303038152906040527f41304fac000000000000000000000000000000000000000000000000000000007bffffffffffffffffffffffffffffffffffffffffffffffffffffffff19166020820180517bffffffffffffffffffffffffffffffffffffffffffffffffffffffff8381831617835250505050611504565b50565b60007f01ffc9a7000000000000000000000000000000000000000000000000000000007bffffffffffffffffffffffffffffffffffffffffffffffffffffffff1916827bffffffffffffffffffffffffffffffffffffffffffffffffffffffff1916149050919050565b60008073ffffffffffffffffffffffffffffffffffffffff166002600084815260200190815260200160002060009054906101000a900473ffffffffffffffffffffffffffffffffffffffff1673ffffffffffffffffffffffffffffffffffffffff1614159050919050565b600033905090565b816004600083815260200190815260200160002060006101000a81548173ffffffffffffffffffffffffffffffffffffffff021916908373ffffffffffffffffffffffffffffffffffffffff160217905550808273ffffffffffffffffffffffffffffffffffffffff16610e47836106c4565b73ffffffffffffffffffffffffffffffffffffffff167f8c5be1e5ebec7d5bd14f71427d1e84f3dd0314c0f7b2291e5b200ac8c7c3b92560405160405180910390a45050565b6000610e9882610d60565b610ed7576040517f08c379a0000000000000000000000000000000000000000000000000000000008152600401610ece906122dc565b60405180910390fd5b6000610ee2836106c4565b90508073ffffffffffffffffffffffffffffffffffffffff168473ffffffffffffffffffffffffffffffffffffffff161480610f5157508373ffffffffffffffffffffffffffffffffffffffff16610f39846104a7565b73ffffffffffffffffffffffffffffffffffffffff16145b80610f625750610f618185610bc9565b5b91505092915050565b8273ffffffffffffffffffffffffffffffffffffffff16610f8b826106c4565b73ffffffffffffffffffffffffffffffffffffffff1614610fe1576040517f08c379a0000000000000000000000000000000000000000000000000000000008152600401610fd8906123dc565b60405180910390fd5b600073ffffffffffffffffffffffffffffffffffffffff168273ffffffffffffffffffffffffffffffffffffffff161415611051576040517f08c379a00000000000000000000000000000000000000000000000000000000081526004016110489061229c565b60405180910390fd5b61105c83838361152d565b611067600082610dd4565b6001600360008573ffffffffffffffffffffffffffffffffffffffff1673ffffffffffffffffffffffffffffffffffffffff16815260200190815260200160002060008282546110b791906125b7565b925050819055506001600360008473ffffffffffffffffffffffffffffffffffffffff1673ffffffffffffffffffffffffffffffffffffffff168152602001908152602001600020600082825461110e9190612530565b92505081905550816002600083815260200190815260200160002060006101000a81548173ffffffffffffffffffffffffffffffffffffffff021916908373ffffffffffffffffffffffffffffffffffffffff160217905550808273ffffffffffffffffffffffffffffffffffffffff168473ffffffffffffffffffffffffffffffffffffffff167fddf252ad1be2c89b69c2b068fc378daa952ba7f163c4a11628f55a4df523b3ef60405160405180910390a4505050565b8173ffffffffffffffffffffffffffffffffffffffff168373ffffffffffffffffffffffffffffffffffffffff161415611236576040517f08c379a000000000000000000000000000000000000000000000000000000000815260040161122d906122bc565b60405180910390fd5b80600560008573ffffffffffffffffffffffffffffffffffffffff1673ffffffffffffffffffffffffffffffffffffffff16815260200190815260200160002060008473ffffffffffffffffffffffffffffffffffffffff1673ffffffffffffffffffffffffffffffffffffffff16815260200190815260200160002060006101000a81548160ff0219169083151502179055508173ffffffffffffffffffffffffffffffffffffffff168373ffffffffffffffffffffffffffffffffffffffff167f17307eab39ab6107e8899845ad3d59bd9653f200f220920489ca2b5937696c3183604051611327919061221f565b60405180910390a3505050565b600081600001549050919050565b61135c828260405180602001604052806000815250611532565b5050565b61136982610d60565b6113a8576040517f08c379a000000000000000000000000000000000000000000000000000000000815260040161139f9061235c565b60405180910390fd5b806006600084815260200190815260200160002090805190602001906113cf929190611ab2565b505050565b6001816000016000828254019250508190555050565b6113f5848484610f6b565b6114018484848461158d565b611440576040517f08c379a00000000000000000000000000000000000000000000000000000000081526004016114379061225c565b60405180910390fd5b50505050565b606060405180602001604052806000815250905090565b606061146882610d60565b6114a7576040517f08c379a000000000000000000000000000000000000000000000000000000000815260040161149e906123fc565b60405180910390fd5b60006114b1611446565b905060008151116114d157604051806020016040528060008152506114fc565b806114db84611724565b6040516020016114ec92919061216b565b6040516020818303038152906040525b915050919050565b60008151905060006a636f6e736f6c652e6c6f679050602083016000808483855afa5050505050565b505050565b61153c83836118d1565b611549600084848461158d565b611588576040517f08c379a000000000000000000000000000000000000000000000000000000000815260040161157f9061225c565b60405180910390fd5b505050565b60006115ae8473ffffffffffffffffffffffffffffffffffffffff16611a9f565b15611717578373ffffffffffffffffffffffffffffffffffffffff1663150b7a026115d7610dcc565b8786866040518563ffffffff1660e01b81526004016115f994939291906121aa565b602060405180830381600087803b15801561161357600080fd5b505af192505050801561164457506040513d601f19601f820116820180604052508101906116419190611df6565b60015b6116c7573d8060008114611674576040519150601f19603f3d011682016040523d82523d6000602084013e611679565b606091505b506000815114156116bf576040517f08c379a00000000000000000000000000000000000000000000000000000000081526004016116b69061225c565b60405180910390fd5b805181602001fd5b63150b7a0260e01b7bffffffffffffffffffffffffffffffffffffffffffffffffffffffff1916817bffffffffffffffffffffffffffffffffffffffffffffffffffffffff19161491505061171c565b600190505b949350505050565b6060600082141561176c576040518060400160405280600181526020017f300000000000000000000000000000000000000000000000000000000000000081525090506118cc565b600082905060005b6000821461179e57808061178790612704565b915050600a826117979190612586565b9150611774565b60008167ffffffffffffffff8111156117e0577f4e487b7100000000000000000000000000000000000000000000000000000000600052604160045260246000fd5b6040519080825280601f01601f1916602001820160405280156118125781602001600182028036833780820191505090505b5090505b600085146118c55760018261182b91906125b7565b9150600a8561183a919061274d565b60306118469190612530565b60f81b818381518110611882577f4e487b7100000000000000000000000000000000000000000000000000000000600052603260045260246000fd5b60200101907effffffffffffffffffffffffffffffffffffffffffffffffffffffffffffff1916908160001a905350600a856118be9190612586565b9450611816565b8093505050505b919050565b600073ffffffffffffffffffffffffffffffffffffffff168273ffffffffffffffffffffffffffffffffffffffff161415611941576040517f08c379a00000000000000000000000000000000000000000000000000000000081526004016119389061237c565b60405180910390fd5b61194a81610d60565b1561198a576040517f08c379a00000000000000000000000000000000000000000000000000000000081526004016119819061227c565b60405180910390fd5b6119966000838361152d565b6001600360008473ffffffffffffffffffffffffffffffffffffffff1673ffffffffffffffffffffffffffffffffffffffff16815260200190815260200160002060008282546119e69190612530565b92505081905550816002600083815260200190815260200160002060006101000a81548173ffffffffffffffffffffffffffffffffffffffff021916908373ffffffffffffffffffffffffffffffffffffffff160217905550808273ffffffffffffffffffffffffffffffffffffffff16600073ffffffffffffffffffffffffffffffffffffffff167fddf252ad1be2c89b69c2b068fc378daa952ba7f163c4a11628f55a4df523b3ef60405160405180910390a45050565b600080823b905060008111915050919050565b828054611abe906126a1565b90600052602060002090601f016020900481019282611ae05760008555611b27565b82601f10611af957805160ff1916838001178555611b27565b82800160010185558215611b27579182015b82811115611b26578251825591602001919060010190611b0b565b5b509050611b349190611b38565b5090565b5b80821115611b51576000816000905550600101611b39565b5090565b6000611b68611b63846124bc565b612497565b905082815260208101848484011115611b8057600080fd5b611b8b84828561265f565b509392505050565b600081359050611ba281612d18565b92915050565b600081359050611bb781612d2f565b92915050565b600081359050611bcc81612d46565b92915050565b600081519050611be181612d46565b92915050565b600082601f830112611bf857600080fd5b8135611c08848260208601611b55565b91505092915050565b600081359050611c2081612d5d565b92915050565b600060208284031215611c3857600080fd5b6000611c4684828501611b93565b91505092915050565b60008060408385031215611c6257600080fd5b6000611c7085828601611b93565b9250506020611c8185828601611b93565b9150509250929050565b600080600060608486031215611ca057600080fd5b6000611cae86828701611b93565b9350506020611cbf86828701611b93565b9250506040611cd086828701611c11565b9150509250925092565b60008060008060808587031215611cf057600080fd5b6000611cfe87828801611b93565b9450506020611d0f87828801611b93565b9350506040611d2087828801611c11565b925050606085013567ffffffffffffffff811115611d3d57600080fd5b611d4987828801611be7565b91505092959194509250565b60008060408385031215611d6857600080fd5b6000611d7685828601611b93565b9250506020611d8785828601611ba8565b9150509250929050565b60008060408385031215611da457600080fd5b6000611db285828601611b93565b9250506020611dc385828601611c11565b9150509250929050565b600060208284031215611ddf57600080fd5b6000611ded84828501611bbd565b91505092915050565b600060208284031215611e0857600080fd5b6000611e1684828501611bd2565b91505092915050565b600060208284031215611e3157600080fd5b6000611e3f84828501611c11565b91505092915050565b611e51816125eb565b82525050565b611e60816125fd565b82525050565b6000611e71826124ed565b611e7b8185612503565b9350611e8b81856020860161266e565b611e948161283a565b840191505092915050565b6000611eaa826124f8565b611eb48185612514565b9350611ec481856020860161266e565b611ecd8161283a565b840191505092915050565b6000611ee3826124f8565b611eed8185612525565b9350611efd81856020860161266e565b80840191505092915050565b6000611f16603283612514565b9150611f218261284b565b604082019050919050565b6000611f39601c83612514565b9150611f448261289a565b602082019050919050565b6000611f5c602483612514565b9150611f67826128c3565b604082019050919050565b6000611f7f601983612514565b9150611f8a82612912565b602082019050919050565b6000611fa2602c83612514565b9150611fad8261293b565b604082019050919050565b6000611fc5603883612514565b9150611fd08261298a565b604082019050919050565b6000611fe8602a83612514565b9150611ff3826129d9565b604082019050919050565b600061200b602983612514565b915061201682612a28565b604082019050919050565b600061202e602e83612514565b915061203982612a77565b604082019050919050565b6000612051602083612514565b915061205c82612ac6565b602082019050919050565b6000612074603183612514565b915061207f82612aef565b604082019050919050565b6000612097602c83612514565b91506120a282612b3e565b604082019050919050565b60006120ba602983612514565b91506120c582612b8d565b604082019050919050565b60006120dd602f83612514565b91506120e882612bdc565b604082019050919050565b6000612100602183612514565b915061210b82612c2b565b604082019050919050565b6000612123603183612514565b915061212e82612c7a565b604082019050919050565b6000612146602d83612514565b915061215182612cc9565b604082019050919050565b61216581612655565b82525050565b60006121778285611ed8565b91506121838284611ed8565b91508190509392505050565b60006020820190506121a46000830184611e48565b92915050565b60006080820190506121bf6000830187611e48565b6121cc6020830186611e48565b6121d9604083018561215c565b81810360608301526121eb8184611e66565b905095945050505050565b600060408201905061220b6000830185611e48565b612218602083018461215c565b9392505050565b60006020820190506122346000830184611e57565b92915050565b600060208201905081810360008301526122548184611e9f565b905092915050565b6000602082019050818103600083015261227581611f09565b9050919050565b6000602082019050818103600083015261229581611f2c565b9050919050565b600060208201905081810360008301526122b581611f4f565b9050919050565b600060208201905081810360008301526122d581611f72565b9050919050565b600060208201905081810360008301526122f581611f95565b9050919050565b6000602082019050818103600083015261231581611fb8565b9050919050565b6000602082019050818103600083015261233581611fdb565b9050919050565b6000602082019050818103600083015261235581611ffe565b9050919050565b6000602082019050818103600083015261237581612021565b9050919050565b6000602082019050818103600083015261239581612044565b9050919050565b600060208201905081810360008301526123b581612067565b9050919050565b600060208201905081810360008301526123d58161208a565b9050919050565b600060208201905081810360008301526123f5816120ad565b9050919050565b60006020820190508181036000830152612415816120d0565b9050919050565b60006020820190508181036000830152612435816120f3565b9050919050565b6000602082019050818103600083015261245581612116565b9050919050565b6000602082019050818103600083015261247581612139565b9050919050565b6000602082019050612491600083018461215c565b92915050565b60006124a16124b2565b90506124ad82826126d3565b919050565b6000604051905090565b600067ffffffffffffffff8211156124d7576124d661280b565b5b6124e08261283a565b9050602081019050919050565b600081519050919050565b600081519050919050565b600082825260208201905092915050565b600082825260208201905092915050565b600081905092915050565b600061253b82612655565b915061254683612655565b9250827fffffffffffffffffffffffffffffffffffffffffffffffffffffffffffffffff0382111561257b5761257a61277e565b5b828201905092915050565b600061259182612655565b915061259c83612655565b9250826125ac576125ab6127ad565b5b828204905092915050565b60006125c282612655565b91506125cd83612655565b9250828210156125e0576125df61277e565b5b828203905092915050565b60006125f682612635565b9050919050565b60008115159050919050565b60007fffffffff0000000000000000000000000000000000000000000000000000000082169050919050565b600073ffffffffffffffffffffffffffffffffffffffff82169050919050565b6000819050919050565b82818337600083830152505050565b60005b8381101561268c578082015181840152602081019050612671565b8381111561269b576000848401525b50505050565b600060028204905060018216806126b957607f821691505b602082108114156126cd576126cc6127dc565b5b50919050565b6126dc8261283a565b810181811067ffffffffffffffff821117156126fb576126fa61280b565b5b80604052505050565b600061270f82612655565b91507fffffffffffffffffffffffffffffffffffffffffffffffffffffffffffffffff8214156127425761274161277e565b5b600182019050919050565b600061275882612655565b915061276383612655565b925082612773576127726127ad565b5b828206905092915050565b7f4e487b7100000000000000000000000000000000000000000000000000000000600052601160045260246000fd5b7f4e487b7100000000000000000000000000000000000000000000000000000000600052601260045260246000fd5b7f4e487b7100000000000000000000000000000000000000000000000000000000600052602260045260246000fd5b7f4e487b7100000000000000000000000000000000000000000000000000000000600052604160045260246000fd5b6000601f19601f8301169050919050565b7f4552433732313a207472616e7366657220746f206e6f6e20455243373231526560008201527f63656976657220696d706c656d656e7465720000000000000000000000000000602082015250565b7f4552433732313a20746f6b656e20616c7265616479206d696e74656400000000600082015250565b7f4552433732313a207472616e7366657220746f20746865207a65726f2061646460008201527f7265737300000000000000000000000000000000000000000000000000000000602082015250565b7f4552433732313a20617070726f766520746f2063616c6c657200000000000000600082015250565b7f4552433732313a206f70657261746f7220717565727920666f72206e6f6e657860008201527f697374656e7420746f6b656e0000000000000000000000000000000000000000602082015250565b7f4552433732313a20617070726f76652063616c6c6572206973206e6f74206f7760008201527f6e6572206e6f7220617070726f76656420666f7220616c6c0000000000000000602082015250565b7f4552433732313a2062616c616e636520717565727920666f7220746865207a6560008201527f726f206164647265737300000000000000000000000000000000000000000000602082015250565b7f4552433732313a206f776e657220717565727920666f72206e6f6e657869737460008201527f656e7420746f6b656e0000000000000000000000000000000000000000000000602082015250565b7f45524337323155524953746f726167653a2055524920736574206f66206e6f6e60008201527f6578697374656e7420746f6b656e000000000000000000000000000000000000602082015250565b7f4552433732313a206d696e7420746f20746865207a65726f2061646472657373600082015250565b7f45524337323155524953746f726167653a2055524920717565727920666f722060008201527f6e6f6e6578697374656e7420746f6b656e000000000000000000000000000000602082015250565b7f4552433732313a20617070726f76656420717565727920666f72206e6f6e657860008201527f697374656e7420746f6b656e0000000000000000000000000000000000000000602082015250565b7f4552433732313a207472616e73666572206f6620746f6b656e2074686174206960008201527f73206e6f74206f776e0000000000000000000000000000000000000000000000602082015250565b7f4552433732314d657461646174613a2055524920717565727920666f72206e6f60008201527f6e6578697374656e7420746f6b656e0000000000000000000000000000000000602082015250565b7f4552433732313a20617070726f76616c20746f2063757272656e74206f776e6560008201527f7200000000000000000000000000000000000000000000000000000000000000602082015250565b7f4552433732313a207472616e736665722063616c6c6572206973206e6f74206f60008201527f776e6572206e6f7220617070726f766564000000000000000000000000000000602082015250565b7f4d617820537570706c7920526561636865642c20596f752063616e6e6f74206d60008201527f696e74206d6f7265204e46547300000000000000000000000000000000000000602082015250565b612d21816125eb565b8114612d2c57600080fd5b50565b612d38816125fd565b8114612d4357600080fd5b50565b612d4f81612609565b8114612d5a57600080fd5b50565b612d6681612655565b8114612d7157600080fd5b5056fe697066733a2f2f516d6179413333593551463134787335337a754d435339416f6b41525566366f50586f65743457416437506e51382fa26469706673582212209a3288e815a8da20c2f26c9fbaa87a780f393534d31a4ee2370cd42caf3b300264736f6c63430008040033",
  "linkReferences": {},
  "deployedLinkReferences": {}
}