{
  "contractName": "KycContract",
  "abi": [
    {
      "inputs": [],
      "name": "spots",
      "outputs": [
        {
          "internalType": "uint256",
          "name": "",
          "type": "uint256"
        }
      ],
      "stateMutability": "view",
      "type": "function",
      "constant": true
    },
    {
      "inputs": [
        {
          "internalType": "address",
          "name": "_addr",
          "type": "address"
        }
      ],
      "name": "setKyc",
      "outputs": [],
      "stateMutability": "nonpayable",
      "type": "function"
    },
    {
      "inputs": [
        {
          "internalType": "address",
          "name": "_addr",
          "type": "address"
        }
      ],
      "name": "revokeKyc",
      "outputs": [],
      "stateMutability": "nonpayable",
      "type": "function"
    },
    {
      "inputs": [
        {
          "internalType": "address",
          "name": "_addr",
          "type": "address"
        }
      ],
      "name": "getKycDetails",
      "outputs": [
        {
          "internalType": "bool",
          "name": "",
          "type": "bool"
        }
      ],
      "stateMutability": "view",
      "type": "function",
      "constant": true
    },
    {
      "inputs": [],
      "name": "getSpotsLeft",
      "outputs": [
        {
          "internalType": "uint256",
          "name": "",
          "type": "uint256"
        }
      ],
      "stateMutability": "view",
      "type": "function",
      "constant": true
    }
  ],
  "bytecode": "0x60806040526103e860015534801561001657600080fd5b5061047b806100266000396000f3fe608060405234801561001057600080fd5b50600436106100575760003560e01c80630abbe1f61461005c578063122831911461008c57806315e02a74146100a857806399c27206146100c6578063f90d9a05146100e2575b600080fd5b610076600480360381019061007191906102d8565b610100565b6040516100839190610320565b60405180910390f35b6100a660048036038101906100a191906102d8565b610155565b005b6100b06101af565b6040516100bd9190610354565b60405180910390f35b6100e060048036038101906100db91906102d8565b6101b5565b005b6100ea61026b565b6040516100f79190610354565b60405180910390f35b60008060008373ffffffffffffffffffffffffffffffffffffffff1673ffffffffffffffffffffffffffffffffffffffff16815260200190815260200160002060009054906101000a900460ff169050919050565b60008060008373ffffffffffffffffffffffffffffffffffffffff1673ffffffffffffffffffffffffffffffffffffffff16815260200190815260200160002060006101000a81548160ff02191690831515021790555050565b60015481565b600060015414156101fb576040517f08c379a00000000000000000000000000000000000000000000000000000000081526004016101f2906103cc565b60405180910390fd5b60016000808373ffffffffffffffffffffffffffffffffffffffff1673ffffffffffffffffffffffffffffffffffffffff16815260200190815260200160002060006101000a81548160ff0219169083151502179055506001600081546102619061041b565b9190508190555050565b6000600154905090565b600080fd5b600073ffffffffffffffffffffffffffffffffffffffff82169050919050565b60006102a58261027a565b9050919050565b6102b58161029a565b81146102c057600080fd5b50565b6000813590506102d2816102ac565b92915050565b6000602082840312156102ee576102ed610275565b5b60006102fc848285016102c3565b91505092915050565b60008115159050919050565b61031a81610305565b82525050565b60006020820190506103356000830184610311565b92915050565b6000819050919050565b61034e8161033b565b82525050565b60006020820190506103696000830184610345565b92915050565b600082825260208201905092915050565b7f57686974656c6973742069732066756c6c000000000000000000000000000000600082015250565b60006103b660118361036f565b91506103c182610380565b602082019050919050565b600060208201905081810360008301526103e5816103a9565b9050919050565b7f4e487b7100000000000000000000000000000000000000000000000000000000600052601160045260246000fd5b60006104268261033b565b9150600082141561043a576104396103ec565b5b60018203905091905056fea2646970667358221220a9758a6114051d00ea0dac2f62e8f47da0b4ec9575f30d5b5c9a4bbe1de7b1bb64736f6c634300080b0033",
  "immutableReferences": {},
  "source": "// SPDX-License-Identifier: MIT\r\npragma solidity ^0.8.1;\r\n\r\ncontract KycContract{\r\n\r\n    mapping(address => bool) allowed;\r\n    uint public spots=1000;\r\n\r\n\r\n    function setKyc(address _addr) public{\r\n        require(spots != 0, \"Whitelist is full\");\r\n        allowed[_addr]=true;\r\n        --spots;\r\n    }  \r\n\r\n    function revokeKyc(address _addr) public{\r\n        allowed[_addr]=false;\r\n    }\r\n\r\n    function getKycDetails(address _addr) public view returns(bool){\r\n        return allowed[_addr];\r\n    }\r\n\r\n    function getSpotsLeft() public view returns(uint){\r\n        return spots;\r\n    }\r\n}",
  "sourcePath": "E:\\Aashar\\Solidity\\TokenCreation\\contracts\\KycContract.sol",
  "compiler": {
    "name": "solc",
    "version": "0.8.11+commit.d7f03943.Emscripten.clang"
  },
  "schemaVersion": "3.4.4",
  "updatedAt": "2022-01-10T08:53:39.145Z",
  "networkType": "ethereum",
  "devdoc": {
    "kind": "dev",
    "methods": {},
    "version": 1
  },
  "userdoc": {
    "kind": "user",
    "methods": {},
    "version": 1
  }
}