{
  "_format": "hh-sol-artifact-1",
  "contractName": "Marketplace",
  "sourceName": "src/backend/contracts/Marketplace.sol",
  "abi": [
    {
      "inputs": [
        {
          "internalType": "uint256",
          "name": "_feePercent",
          "type": "uint256"
        }
      ],
      "stateMutability": "nonpayable",
      "type": "constructor"
    },
    {
      "anonymous": false,
      "inputs": [
        {
          "indexed": false,
          "internalType": "uint256",
          "name": "itemId",
          "type": "uint256"
        },
        {
          "indexed": true,
          "internalType": "address",
          "name": "nft",
          "type": "address"
        },
        {
          "indexed": false,
          "internalType": "uint256",
          "name": "tokenId",
          "type": "uint256"
        },
        {
          "indexed": false,
          "internalType": "uint256",
          "name": "price",
          "type": "uint256"
        },
        {
          "indexed": true,
          "internalType": "address",
          "name": "seller",
          "type": "address"
        },
        {
          "indexed": true,
          "internalType": "address",
          "name": "buyer",
          "type": "address"
        }
      ],
      "name": "Bought",
      "type": "event"
    },
    {
      "anonymous": false,
      "inputs": [
        {
          "indexed": false,
          "internalType": "uint256",
          "name": "itemId",
          "type": "uint256"
        },
        {
          "indexed": true,
          "internalType": "address",
          "name": "nft",
          "type": "address"
        },
        {
          "indexed": false,
          "internalType": "uint256",
          "name": "tokenId",
          "type": "uint256"
        },
        {
          "indexed": false,
          "internalType": "uint256",
          "name": "price",
          "type": "uint256"
        },
        {
          "indexed": true,
          "internalType": "address",
          "name": "seller",
          "type": "address"
        }
      ],
      "name": "Listed",
      "type": "event"
    },
    {
      "inputs": [],
      "name": "feePercent",
      "outputs": [
        {
          "internalType": "uint256",
          "name": "",
          "type": "uint256"
        }
      ],
      "stateMutability": "view",
      "type": "function"
    },
    {
      "inputs": [],
      "name": "feeReceiver",
      "outputs": [
        {
          "internalType": "address payable",
          "name": "",
          "type": "address"
        }
      ],
      "stateMutability": "view",
      "type": "function"
    },
    {
      "inputs": [
        {
          "internalType": "uint256",
          "name": "_itemId",
          "type": "uint256"
        }
      ],
      "name": "getTotalPrice",
      "outputs": [
        {
          "internalType": "uint256",
          "name": "",
          "type": "uint256"
        }
      ],
      "stateMutability": "view",
      "type": "function"
    },
    {
      "inputs": [],
      "name": "itemCount",
      "outputs": [
        {
          "internalType": "uint256",
          "name": "",
          "type": "uint256"
        }
      ],
      "stateMutability": "view",
      "type": "function"
    },
    {
      "inputs": [
        {
          "internalType": "uint256",
          "name": "",
          "type": "uint256"
        }
      ],
      "name": "items",
      "outputs": [
        {
          "internalType": "uint256",
          "name": "itemId",
          "type": "uint256"
        },
        {
          "internalType": "contract IERC721",
          "name": "nft",
          "type": "address"
        },
        {
          "internalType": "uint256",
          "name": "tokenId",
          "type": "uint256"
        },
        {
          "internalType": "uint256",
          "name": "price",
          "type": "uint256"
        },
        {
          "internalType": "address payable",
          "name": "seller",
          "type": "address"
        },
        {
          "internalType": "bool",
          "name": "sold",
          "type": "bool"
        },
        {
          "internalType": "address",
          "name": "buyer",
          "type": "address"
        }
      ],
      "stateMutability": "view",
      "type": "function"
    },
    {
      "inputs": [
        {
          "internalType": "contract IERC721",
          "name": "_nft",
          "type": "address"
        },
        {
          "internalType": "uint256",
          "name": "_tokenId",
          "type": "uint256"
        },
        {
          "internalType": "uint256",
          "name": "_price",
          "type": "uint256"
        }
      ],
      "name": "listItem",
      "outputs": [],
      "stateMutability": "nonpayable",
      "type": "function"
    },
    {
      "inputs": [
        {
          "internalType": "uint256",
          "name": "_itemId",
          "type": "uint256"
        }
      ],
      "name": "purchaseItem",
      "outputs": [],
      "stateMutability": "payable",
      "type": "function"
    }
  ],
  "bytecode": "0x60c060405234801561001057600080fd5b5060405161125538038061125583398181016040528101906100329190610094565b60016000819055508060a081815250503373ffffffffffffffffffffffffffffffffffffffff1660808173ffffffffffffffffffffffffffffffffffffffff1660601b81525050506100de565b60008151905061008e816100c7565b92915050565b6000602082840312156100a657600080fd5b60006100b48482850161007f565b91505092915050565b6000819050919050565b6100d0816100bd565b81146100db57600080fd5b50565b60805160601c60a051611141610114600039600081816101c301526105f401526000818161051d015261081a01526111416000f3fe6080604052600436106100705760003560e01c8063b3f006741161004e578063b3f00674146100f4578063bfb231d21461011f578063ca7dd37514610162578063d38ea5bf1461019f57610070565b80636bfb0d01146100755780637fd6f15c146100a057806389bfd38f146100cb575b600080fd5b34801561008157600080fd5b5061008a6101bb565b6040516100979190610cf2565b60405180910390f35b3480156100ac57600080fd5b506100b56101c1565b6040516100c29190610cf2565b60405180910390f35b3480156100d757600080fd5b506100f260048036038101906100ed9190610a8e565b6101e5565b005b34801561010057600080fd5b5061010961051b565b6040516101169190610c00565b60405180910390f35b34801561012b57600080fd5b5061014660048036038101906101419190610add565b61053f565b6040516101599796959493929190610d0d565b60405180910390f35b34801561016e57600080fd5b5061018960048036038101906101849190610add565b6105ee565b6040516101969190610cf2565b60405180910390f35b6101b960048036038101906101b49190610add565b610651565b005b60015481565b7f000000000000000000000000000000000000000000000000000000000000000081565b6002600054141561022b576040517f08c379a000000000000000000000000000000000000000000000000000000000815260040161022290610cd2565b60405180910390fd5b600260008190555060008111610276576040517f08c379a000000000000000000000000000000000000000000000000000000000815260040161026d90610c92565b60405180910390fd5b6001600081548092919061028990610f69565b91905055508273ffffffffffffffffffffffffffffffffffffffff166323b872dd3330856040518463ffffffff1660e01b81526004016102cb93929190610c1b565b600060405180830381600087803b1580156102e557600080fd5b505af11580156102f9573d6000803e3d6000fd5b505050506040518060e0016040528060015481526020018473ffffffffffffffffffffffffffffffffffffffff1681526020018381526020018281526020013373ffffffffffffffffffffffffffffffffffffffff168152602001600015158152602001600073ffffffffffffffffffffffffffffffffffffffff168152506002600060015481526020019081526020016000206000820151816000015560208201518160010160006101000a81548173ffffffffffffffffffffffffffffffffffffffff021916908373ffffffffffffffffffffffffffffffffffffffff160217905550604082015181600201556060820151816003015560808201518160040160006101000a81548173ffffffffffffffffffffffffffffffffffffffff021916908373ffffffffffffffffffffffffffffffffffffffff16021790555060a08201518160040160146101000a81548160ff02191690831515021790555060c08201518160050160006101000a81548173ffffffffffffffffffffffffffffffffffffffff021916908373ffffffffffffffffffffffffffffffffffffffff1602179055509050503373ffffffffffffffffffffffffffffffffffffffff168373ffffffffffffffffffffffffffffffffffffffff167f0d770f67a166dfb160ca3991c3a328328d7d3899464a55a6fa63448ceda49523600154858560405161050693929190610d7c565b60405180910390a36001600081905550505050565b7f000000000000000000000000000000000000000000000000000000000000000081565b60026020528060005260406000206000915090508060000154908060010160009054906101000a900473ffffffffffffffffffffffffffffffffffffffff16908060020154908060030154908060040160009054906101000a900473ffffffffffffffffffffffffffffffffffffffff16908060040160149054906101000a900460ff16908060050160009054906101000a900473ffffffffffffffffffffffffffffffffffffffff16905087565b600060647f0000000000000000000000000000000000000000000000000000000000000000606461061f9190610dc4565b60026000858152602001908152602001600020600301546106409190610e4b565b61064a9190610e1a565b9050919050565b60026000541415610697576040517f08c379a000000000000000000000000000000000000000000000000000000000815260040161068e90610cd2565b60405180910390fd5b600260008190555060006106aa826105ee565b905060006002600084815260200190815260200160002090508060040160149054906101000a900460ff1615610715576040517f08c379a000000000000000000000000000000000000000000000000000000000815260040161070c90610c72565b60405180910390fd5b81341015610758576040517f08c379a000000000000000000000000000000000000000000000000000000000815260040161074f90610cb2565b60405180910390fd5b60008311801561076a57506001548311155b6107a9576040517f08c379a00000000000000000000000000000000000000000000000000000000081526004016107a090610c52565b60405180910390fd5b8060040160009054906101000a900473ffffffffffffffffffffffffffffffffffffffff1673ffffffffffffffffffffffffffffffffffffffff166108fc82600301549081150290604051600060405180830381858888f19350505050158015610817573d6000803e3d6000fd5b507f000000000000000000000000000000000000000000000000000000000000000073ffffffffffffffffffffffffffffffffffffffff166108fc8260030154846108629190610ea5565b9081150290604051600060405180830381858888f1935050505015801561088d573d6000803e3d6000fd5b5060018160040160146101000a81548160ff021916908315150217905550338160050160006101000a81548173ffffffffffffffffffffffffffffffffffffffff021916908373ffffffffffffffffffffffffffffffffffffffff1602179055508060010160009054906101000a900473ffffffffffffffffffffffffffffffffffffffff1673ffffffffffffffffffffffffffffffffffffffff166323b872dd303384600201546040518463ffffffff1660e01b815260040161095393929190610c1b565b600060405180830381600087803b15801561096d57600080fd5b505af1158015610981573d6000803e3d6000fd5b505050503373ffffffffffffffffffffffffffffffffffffffff168160040160009054906101000a900473ffffffffffffffffffffffffffffffffffffffff1673ffffffffffffffffffffffffffffffffffffffff168260010160009054906101000a900473ffffffffffffffffffffffffffffffffffffffff1673ffffffffffffffffffffffffffffffffffffffff167f8b4c9c8a607d67b321582dd8461041b1dc2ceeca70c8b7f37f8e02095cf2e76d60015485600201548660030154604051610a4f93929190610d7c565b60405180910390a45050600160008190555050565b600081359050610a73816110dd565b92915050565b600081359050610a88816110f4565b92915050565b600080600060608486031215610aa357600080fd5b6000610ab186828701610a64565b9350506020610ac286828701610a79565b9250506040610ad386828701610a79565b9150509250925092565b600060208284031215610aef57600080fd5b6000610afd84828501610a79565b91505092915050565b610b0f81610eeb565b82525050565b610b1e81610ed9565b82525050565b610b2d81610efd565b82525050565b610b3c81610f45565b82525050565b6000610b4f601483610db3565b9150610b5a82611010565b602082019050919050565b6000610b72601f83610db3565b9150610b7d82611039565b602082019050919050565b6000610b95602083610db3565b9150610ba082611062565b602082019050919050565b6000610bb8601883610db3565b9150610bc38261108b565b602082019050919050565b6000610bdb601f83610db3565b9150610be6826110b4565b602082019050919050565b610bfa81610f3b565b82525050565b6000602082019050610c156000830184610b06565b92915050565b6000606082019050610c306000830186610b15565b610c3d6020830185610b15565b610c4a6040830184610bf1565b949350505050565b60006020820190508181036000830152610c6b81610b42565b9050919050565b60006020820190508181036000830152610c8b81610b65565b9050919050565b60006020820190508181036000830152610cab81610b88565b9050919050565b60006020820190508181036000830152610ccb81610bab565b9050919050565b60006020820190508181036000830152610ceb81610bce565b9050919050565b6000602082019050610d076000830184610bf1565b92915050565b600060e082019050610d22600083018a610bf1565b610d2f6020830189610b33565b610d3c6040830188610bf1565b610d496060830187610bf1565b610d566080830186610b06565b610d6360a0830185610b24565b610d7060c0830184610b15565b98975050505050505050565b6000606082019050610d916000830186610bf1565b610d9e6020830185610bf1565b610dab6040830184610bf1565b949350505050565b600082825260208201905092915050565b6000610dcf82610f3b565b9150610dda83610f3b565b9250827fffffffffffffffffffffffffffffffffffffffffffffffffffffffffffffffff03821115610e0f57610e0e610fb2565b5b828201905092915050565b6000610e2582610f3b565b9150610e3083610f3b565b925082610e4057610e3f610fe1565b5b828204905092915050565b6000610e5682610f3b565b9150610e6183610f3b565b9250817fffffffffffffffffffffffffffffffffffffffffffffffffffffffffffffffff0483118215151615610e9a57610e99610fb2565b5b828202905092915050565b6000610eb082610f3b565b9150610ebb83610f3b565b925082821015610ece57610ecd610fb2565b5b828203905092915050565b6000610ee482610f1b565b9050919050565b6000610ef682610f1b565b9050919050565b60008115159050919050565b6000610f1482610ed9565b9050919050565b600073ffffffffffffffffffffffffffffffffffffffff82169050919050565b6000819050919050565b6000610f5082610f57565b9050919050565b6000610f6282610f1b565b9050919050565b6000610f7482610f3b565b91507fffffffffffffffffffffffffffffffffffffffffffffffffffffffffffffffff821415610fa757610fa6610fb2565b5b600182019050919050565b7f4e487b7100000000000000000000000000000000000000000000000000000000600052601160045260246000fd5b7f4e487b7100000000000000000000000000000000000000000000000000000000600052601260045260246000fd5b7f4974656d206973206e6f6e206578697374616e74000000000000000000000000600082015250565b7f54686973206974656d2068617320616c7265616479206265656e20736f6c6400600082015250565b7f5072696365206973206c657373207468616e206f7220657175616c20746f2030600082015250565b7f546865205072696365206973206e6f7420636f72726563740000000000000000600082015250565b7f5265656e7472616e637947756172643a207265656e7472616e742063616c6c00600082015250565b6110e681610f09565b81146110f157600080fd5b50565b6110fd81610f3b565b811461110857600080fd5b5056fea2646970667358221220a4cd8fecc5c38d42c555031c7a2d1a0ac6562d2f67948e40ca8553f377303f3564736f6c63430008040033",
  "linkReferences": {},
  "deployedLinkReferences": {}
}