{
  "_format": "hh-sol-artifact-1",
  "contractName": "NftGame",
  "sourceName": "contracts/NftGame.sol",
  "abi": [
    {
      "inputs": [
        {
          "internalType": "string[]",
          "name": "_characterNames",
          "type": "string[]"
        },
        {
          "internalType": "string[]",
          "name": "_imageURIs",
          "type": "string[]"
        },
        {
          "internalType": "uint256[]",
          "name": "_characterHps",
          "type": "uint256[]"
        },
        {
          "internalType": "uint256[]",
          "name": "_characterAD",
          "type": "uint256[]"
        },
        {
          "internalType": "string",
          "name": "_bossName",
          "type": "string"
        },
        {
          "internalType": "string",
          "name": "_bossImage",
          "type": "string"
        },
        {
          "internalType": "uint256",
          "name": "_bossHp",
          "type": "uint256"
        },
        {
          "internalType": "uint256",
          "name": "_bossAD",
          "type": "uint256"
        }
      ],
      "stateMutability": "nonpayable",
      "type": "constructor"
    },
    {
      "anonymous": false,
      "inputs": [
        {
          "indexed": true,
          "internalType": "address",
          "name": "owner",
          "type": "address"
        },
        {
          "indexed": true,
          "internalType": "address",
          "name": "approved",
          "type": "address"
        },
        {
          "indexed": true,
          "internalType": "uint256",
          "name": "tokenId",
          "type": "uint256"
        }
      ],
      "name": "Approval",
      "type": "event"
    },
    {
      "anonymous": false,
      "inputs": [
        {
          "indexed": true,
          "internalType": "address",
          "name": "owner",
          "type": "address"
        },
        {
          "indexed": true,
          "internalType": "address",
          "name": "operator",
          "type": "address"
        },
        {
          "indexed": false,
          "internalType": "bool",
          "name": "approved",
          "type": "bool"
        }
      ],
      "name": "ApprovalForAll",
      "type": "event"
    },
    {
      "anonymous": false,
      "inputs": [
        {
          "indexed": false,
          "internalType": "address",
          "name": "_sender",
          "type": "address"
        },
        {
          "indexed": false,
          "internalType": "uint256",
          "name": "_tokenId",
          "type": "uint256"
        },
        {
          "indexed": false,
          "internalType": "uint256",
          "name": "_charId",
          "type": "uint256"
        }
      ],
      "name": "NFTMinted",
      "type": "event"
    },
    {
      "anonymous": false,
      "inputs": [
        {
          "indexed": true,
          "internalType": "address",
          "name": "from",
          "type": "address"
        },
        {
          "indexed": true,
          "internalType": "address",
          "name": "to",
          "type": "address"
        },
        {
          "indexed": true,
          "internalType": "uint256",
          "name": "tokenId",
          "type": "uint256"
        }
      ],
      "name": "Transfer",
      "type": "event"
    },
    {
      "anonymous": false,
      "inputs": [
        {
          "indexed": false,
          "internalType": "uint256",
          "name": "_bossHp",
          "type": "uint256"
        },
        {
          "indexed": false,
          "internalType": "uint256",
          "name": "playerHp",
          "type": "uint256"
        }
      ],
      "name": "UpdatedHps",
      "type": "event"
    },
    {
      "inputs": [
        {
          "internalType": "address",
          "name": "to",
          "type": "address"
        },
        {
          "internalType": "uint256",
          "name": "tokenId",
          "type": "uint256"
        }
      ],
      "name": "approve",
      "outputs": [],
      "stateMutability": "nonpayable",
      "type": "function"
    },
    {
      "inputs": [],
      "name": "attackBoss",
      "outputs": [],
      "stateMutability": "nonpayable",
      "type": "function"
    },
    {
      "inputs": [
        {
          "internalType": "address",
          "name": "owner",
          "type": "address"
        }
      ],
      "name": "balanceOf",
      "outputs": [
        {
          "internalType": "uint256",
          "name": "",
          "type": "uint256"
        }
      ],
      "stateMutability": "view",
      "type": "function"
    },
    {
      "inputs": [],
      "name": "boss",
      "outputs": [
        {
          "internalType": "string",
          "name": "name",
          "type": "string"
        },
        {
          "internalType": "string",
          "name": "imageURI",
          "type": "string"
        },
        {
          "internalType": "uint256",
          "name": "hp",
          "type": "uint256"
        },
        {
          "internalType": "uint256",
          "name": "maxHp",
          "type": "uint256"
        },
        {
          "internalType": "uint256",
          "name": "attackDamage",
          "type": "uint256"
        }
      ],
      "stateMutability": "view",
      "type": "function"
    },
    {
      "inputs": [],
      "name": "checkIfUserHasNFT",
      "outputs": [
        {
          "components": [
            {
              "internalType": "uint256",
              "name": "characterId",
              "type": "uint256"
            },
            {
              "internalType": "string",
              "name": "name",
              "type": "string"
            },
            {
              "internalType": "string",
              "name": "imageURI",
              "type": "string"
            },
            {
              "internalType": "uint256",
              "name": "hp",
              "type": "uint256"
            },
            {
              "internalType": "uint256",
              "name": "maxHp",
              "type": "uint256"
            },
            {
              "internalType": "uint256",
              "name": "attackDamage",
              "type": "uint256"
            }
          ],
          "internalType": "struct NftGame.characterAttributes",
          "name": "",
          "type": "tuple"
        }
      ],
      "stateMutability": "view",
      "type": "function"
    },
    {
      "inputs": [],
      "name": "getAllDefaultCharacters",
      "outputs": [
        {
          "components": [
            {
              "internalType": "uint256",
              "name": "characterId",
              "type": "uint256"
            },
            {
              "internalType": "string",
              "name": "name",
              "type": "string"
            },
            {
              "internalType": "string",
              "name": "imageURI",
              "type": "string"
            },
            {
              "internalType": "uint256",
              "name": "hp",
              "type": "uint256"
            },
            {
              "internalType": "uint256",
              "name": "maxHp",
              "type": "uint256"
            },
            {
              "internalType": "uint256",
              "name": "attackDamage",
              "type": "uint256"
            }
          ],
          "internalType": "struct NftGame.characterAttributes[]",
          "name": "",
          "type": "tuple[]"
        }
      ],
      "stateMutability": "view",
      "type": "function"
    },
    {
      "inputs": [
        {
          "internalType": "uint256",
          "name": "tokenId",
          "type": "uint256"
        }
      ],
      "name": "getApproved",
      "outputs": [
        {
          "internalType": "address",
          "name": "",
          "type": "address"
        }
      ],
      "stateMutability": "view",
      "type": "function"
    },
    {
      "inputs": [],
      "name": "getBigBoss",
      "outputs": [
        {
          "components": [
            {
              "internalType": "string",
              "name": "name",
              "type": "string"
            },
            {
              "internalType": "string",
              "name": "imageURI",
              "type": "string"
            },
            {
              "internalType": "uint256",
              "name": "hp",
              "type": "uint256"
            },
            {
              "internalType": "uint256",
              "name": "maxHp",
              "type": "uint256"
            },
            {
              "internalType": "uint256",
              "name": "attackDamage",
              "type": "uint256"
            }
          ],
          "internalType": "struct NftGame.BigBoss",
          "name": "",
          "type": "tuple"
        }
      ],
      "stateMutability": "view",
      "type": "function"
    },
    {
      "inputs": [
        {
          "internalType": "address",
          "name": "owner",
          "type": "address"
        },
        {
          "internalType": "address",
          "name": "operator",
          "type": "address"
        }
      ],
      "name": "isApprovedForAll",
      "outputs": [
        {
          "internalType": "bool",
          "name": "",
          "type": "bool"
        }
      ],
      "stateMutability": "view",
      "type": "function"
    },
    {
      "inputs": [
        {
          "internalType": "uint256",
          "name": "_id",
          "type": "uint256"
        }
      ],
      "name": "mintNFT",
      "outputs": [],
      "stateMutability": "nonpayable",
      "type": "function"
    },
    {
      "inputs": [],
      "name": "name",
      "outputs": [
        {
          "internalType": "string",
          "name": "",
          "type": "string"
        }
      ],
      "stateMutability": "view",
      "type": "function"
    },
    {
      "inputs": [
        {
          "internalType": "uint256",
          "name": "",
          "type": "uint256"
        }
      ],
      "name": "nftHolderAttributes",
      "outputs": [
        {
          "internalType": "uint256",
          "name": "characterId",
          "type": "uint256"
        },
        {
          "internalType": "string",
          "name": "name",
          "type": "string"
        },
        {
          "internalType": "string",
          "name": "imageURI",
          "type": "string"
        },
        {
          "internalType": "uint256",
          "name": "hp",
          "type": "uint256"
        },
        {
          "internalType": "uint256",
          "name": "maxHp",
          "type": "uint256"
        },
        {
          "internalType": "uint256",
          "name": "attackDamage",
          "type": "uint256"
        }
      ],
      "stateMutability": "view",
      "type": "function"
    },
    {
      "inputs": [
        {
          "internalType": "address",
          "name": "",
          "type": "address"
        }
      ],
      "name": "nftHolders",
      "outputs": [
        {
          "internalType": "uint256",
          "name": "",
          "type": "uint256"
        }
      ],
      "stateMutability": "view",
      "type": "function"
    },
    {
      "inputs": [
        {
          "internalType": "uint256",
          "name": "tokenId",
          "type": "uint256"
        }
      ],
      "name": "ownerOf",
      "outputs": [
        {
          "internalType": "address",
          "name": "",
          "type": "address"
        }
      ],
      "stateMutability": "view",
      "type": "function"
    },
    {
      "inputs": [
        {
          "internalType": "address",
          "name": "from",
          "type": "address"
        },
        {
          "internalType": "address",
          "name": "to",
          "type": "address"
        },
        {
          "internalType": "uint256",
          "name": "tokenId",
          "type": "uint256"
        }
      ],
      "name": "safeTransferFrom",
      "outputs": [],
      "stateMutability": "nonpayable",
      "type": "function"
    },
    {
      "inputs": [
        {
          "internalType": "address",
          "name": "from",
          "type": "address"
        },
        {
          "internalType": "address",
          "name": "to",
          "type": "address"
        },
        {
          "internalType": "uint256",
          "name": "tokenId",
          "type": "uint256"
        },
        {
          "internalType": "bytes",
          "name": "_data",
          "type": "bytes"
        }
      ],
      "name": "safeTransferFrom",
      "outputs": [],
      "stateMutability": "nonpayable",
      "type": "function"
    },
    {
      "inputs": [
        {
          "internalType": "address",
          "name": "operator",
          "type": "address"
        },
        {
          "internalType": "bool",
          "name": "approved",
          "type": "bool"
        }
      ],
      "name": "setApprovalForAll",
      "outputs": [],
      "stateMutability": "nonpayable",
      "type": "function"
    },
    {
      "inputs": [
        {
          "internalType": "bytes4",
          "name": "interfaceId",
          "type": "bytes4"
        }
      ],
      "name": "supportsInterface",
      "outputs": [
        {
          "internalType": "bool",
          "name": "",
          "type": "bool"
        }
      ],
      "stateMutability": "view",
      "type": "function"
    },
    {
      "inputs": [],
      "name": "symbol",
      "outputs": [
        {
          "internalType": "string",
          "name": "",
          "type": "string"
        }
      ],
      "stateMutability": "view",
      "type": "function"
    },
    {
      "inputs": [
        {
          "internalType": "uint256",
          "name": "_tokenId",
          "type": "uint256"
        }
      ],
      "name": "tokenURI",
      "outputs": [
        {
          "internalType": "string",
          "name": "",
          "type": "string"
        }
      ],
      "stateMutability": "view",
      "type": "function"
    },
    {
      "inputs": [
        {
          "internalType": "address",
          "name": "from",
          "type": "address"
        },
        {
          "internalType": "address",
          "name": "to",
          "type": "address"
        },
        {
          "internalType": "uint256",
          "name": "tokenId",
          "type": "uint256"
        }
      ],
      "name": "transferFrom",
      "outputs": [],
      "stateMutability": "nonpayable",
      "type": "function"
    }
  ],
  "bytecode": "0x60806040523480156200001157600080fd5b5060405162005c2338038062005c23833981810160405281019062000037919062000ba1565b6040518060400160405280600881526020017f464f4f54574152530000000000000000000000000000000000000000000000008152506040518060400160405280600381526020017f46545700000000000000000000000000000000000000000000000000000000008152508160009080519060200190620000bb92919062000909565b508060019080519060200190620000d492919062000909565b505050620001226040518060400160405280601981526020017f426574746572207468616e204178696520496e66696e69747900000000000000815250620006d260201b62001e541760201c565b6040518060a0016040528085815260200184815260200183815260200183815260200182815250600760008201518160000190805190602001906200016992919062000909565b5060208201518160010190805190602001906200018892919062000909565b50604082015181600201556060820151816003015560808201518160040155905050620002916040518060400160405280601e81526020017f257320486173206265656e20437265617465642077697468204850202564000081525060076000018054620001f69062000f36565b80601f0160208091040260200160405190810160405280929190818152602001828054620002249062000f36565b8015620002755780601f10620002495761010080835404028352916020019162000275565b820191906000526020600020905b8154815290600101906020018083116200025757829003601f168201915b50505050506007600201546200077560201b62001eed1760201c565b60005b8851811015620006ac57600c6040518060c001604052808381526020018b8481518110620002eb577f4e487b7100000000000000000000000000000000000000000000000000000000600052603260045260246000fd5b602002602001015181526020018a848151811062000332577f4e487b7100000000000000000000000000000000000000000000000000000000600052603260045260246000fd5b6020026020010151815260200189848151811062000379577f4e487b7100000000000000000000000000000000000000000000000000000000600052603260045260246000fd5b60200260200101518152602001898481518110620003c0577f4e487b7100000000000000000000000000000000000000000000000000000000600052603260045260246000fd5b6020026020010151815260200188848151811062000407577f4e487b7100000000000000000000000000000000000000000000000000000000600052603260045260246000fd5b602002602001015181525090806001815401808255809150506001900390600052602060002090600602016000909190919091506000820151816000015560208201518160010190805190602001906200046392919062000909565b5060408201518160020190805190602001906200048292919062000909565b50606082015181600301556080820151816004015560a0820151816005015550506000600c8281548110620004e0577f4e487b7100000000000000000000000000000000000000000000000000000000600052603260045260246000fd5b90600052602060002090600602016040518060c001604052908160008201548152602001600182018054620005159062000f36565b80601f0160208091040260200160405190810160405280929190818152602001828054620005439062000f36565b8015620005945780601f10620005685761010080835404028352916020019162000594565b820191906000526020600020905b8154815290600101906020018083116200057657829003601f168201915b50505050508152602001600282018054620005af9062000f36565b80601f0160208091040260200160405190810160405280929190818152602001828054620005dd9062000f36565b80156200062e5780601f1062000602576101008083540402835291602001916200062e565b820191906000526020600020905b8154815290600101906020018083116200061057829003601f168201915b50505050508152602001600382015481526020016004820154815260200160058201548152505090506200069560405180606001604052806021815260200162005c02602191398260200151836040015184608001516200081e60201b62001f8c1760201c565b508080620006a39062000fa2565b91505062000294565b50620006c46006620008ca60201b6200202e1760201c565b5050505050505050620010a8565b6200077281604051602401620006e9919062000d4c565b6040516020818303038152906040527f41304fac000000000000000000000000000000000000000000000000000000007bffffffffffffffffffffffffffffffffffffffffffffffffffffffff19166020820180517bffffffffffffffffffffffffffffffffffffffffffffffffffffffff8381831617835250505050620008e060201b60201c565b50565b62000819838383604051602401620007909392919062000dd2565b6040516020818303038152906040527ff362ca59000000000000000000000000000000000000000000000000000000007bffffffffffffffffffffffffffffffffffffffffffffffffffffffff19166020820180517bffffffffffffffffffffffffffffffffffffffffffffffffffffffff8381831617835250505050620008e060201b60201c565b505050565b620008c4848484846040516024016200083b949392919062000d70565b6040516020818303038152906040527f9fd009f5000000000000000000000000000000000000000000000000000000007bffffffffffffffffffffffffffffffffffffffffffffffffffffffff19166020820180517bffffffffffffffffffffffffffffffffffffffffffffffffffffffff8381831617835250505050620008e060201b60201c565b50505050565b6001816000016000828254019250508190555050565b60008151905060006a636f6e736f6c652e6c6f679050602083016000808483855afa5050505050565b828054620009179062000f36565b90600052602060002090601f0160209004810192826200093b576000855562000987565b82601f106200095657805160ff191683800117855562000987565b8280016001018555821562000987579182015b828111156200098657825182559160200191906001019062000969565b5b5090506200099691906200099a565b5090565b5b80821115620009b55760008160009055506001016200099b565b5090565b6000620009d0620009ca8462000e46565b62000e1d565b90508083825260208201905082856020860282011115620009f057600080fd5b60005b8581101562000a3f57815167ffffffffffffffff81111562000a1457600080fd5b80860162000a23898262000b5d565b85526020850194506020840193505050600181019050620009f3565b5050509392505050565b600062000a6062000a5a8462000e75565b62000e1d565b9050808382526020820190508285602086028201111562000a8057600080fd5b60005b8581101562000ab4578162000a99888262000b8a565b84526020840193506020830192505060018101905062000a83565b5050509392505050565b600062000ad562000acf8462000ea4565b62000e1d565b90508281526020810184848401111562000aee57600080fd5b62000afb84828562000f00565b509392505050565b600082601f83011262000b1557600080fd5b815162000b27848260208601620009b9565b91505092915050565b600082601f83011262000b4257600080fd5b815162000b5484826020860162000a49565b91505092915050565b600082601f83011262000b6f57600080fd5b815162000b8184826020860162000abe565b91505092915050565b60008151905062000b9b816200108e565b92915050565b600080600080600080600080610100898b03121562000bbf57600080fd5b600089015167ffffffffffffffff81111562000bda57600080fd5b62000be88b828c0162000b03565b985050602089015167ffffffffffffffff81111562000c0657600080fd5b62000c148b828c0162000b03565b975050604089015167ffffffffffffffff81111562000c3257600080fd5b62000c408b828c0162000b30565b965050606089015167ffffffffffffffff81111562000c5e57600080fd5b62000c6c8b828c0162000b30565b955050608089015167ffffffffffffffff81111562000c8a57600080fd5b62000c988b828c0162000b5d565b94505060a089015167ffffffffffffffff81111562000cb657600080fd5b62000cc48b828c0162000b5d565b93505060c062000cd78b828c0162000b8a565b92505060e062000cea8b828c0162000b8a565b9150509295985092959890939650565b600062000d078262000eda565b62000d13818562000ee5565b935062000d2581856020860162000f00565b62000d30816200107d565b840191505092915050565b62000d468162000ef6565b82525050565b6000602082019050818103600083015262000d68818462000cfa565b905092915050565b6000608082019050818103600083015262000d8c818762000cfa565b9050818103602083015262000da2818662000cfa565b9050818103604083015262000db8818562000cfa565b905062000dc9606083018462000d3b565b95945050505050565b6000606082019050818103600083015262000dee818662000cfa565b9050818103602083015262000e04818562000cfa565b905062000e15604083018462000d3b565b949350505050565b600062000e2962000e3c565b905062000e37828262000f6c565b919050565b6000604051905090565b600067ffffffffffffffff82111562000e645762000e636200104e565b5b602082029050602081019050919050565b600067ffffffffffffffff82111562000e935762000e926200104e565b5b602082029050602081019050919050565b600067ffffffffffffffff82111562000ec25762000ec16200104e565b5b62000ecd826200107d565b9050602081019050919050565b600081519050919050565b600082825260208201905092915050565b6000819050919050565b60005b8381101562000f2057808201518184015260208101905062000f03565b8381111562000f30576000848401525b50505050565b6000600282049050600182168062000f4f57607f821691505b6020821081141562000f665762000f656200101f565b5b50919050565b62000f77826200107d565b810181811067ffffffffffffffff8211171562000f995762000f986200104e565b5b80604052505050565b600062000faf8262000ef6565b91507fffffffffffffffffffffffffffffffffffffffffffffffffffffffffffffffff82141562000fe55762000fe462000ff0565b5b600182019050919050565b7f4e487b7100000000000000000000000000000000000000000000000000000000600052601160045260246000fd5b7f4e487b7100000000000000000000000000000000000000000000000000000000600052602260045260246000fd5b7f4e487b7100000000000000000000000000000000000000000000000000000000600052604160045260246000fd5b6000601f19601f8301169050919050565b620010998162000ef6565b8114620010a557600080fd5b50565b614b4a80620010b86000396000f3fe608060405234801561001057600080fd5b50600436106101375760003560e01c806392642744116100b8578063b953084e1161007c578063b953084e14610363578063c772af3914610381578063c87b56dd146103a3578063c8cf27f4146103d3578063d4f24c5b146103f1578063e985e9c5146103fb57610137565b806392642744146102bc57806395d89b41146102d857806398da4c95146102f6578063a22cb4651461032b578063b88d4fde1461034757610137565b806323b872dd116100ff57806323b872dd146101f457806342842e0e146102105780636352211e1461022c57806370a082311461025c5780637df124a11461028c57610137565b806301ffc9a71461013c5780630665f9611461016c57806306fdde031461018a578063081812fc146101a8578063095ea7b3146101d8575b600080fd5b61015660048036038101906101519190613298565b61042b565b6040516101639190613afd565b60405180910390f35b61017461050d565b6040516101819190613e6d565b60405180910390f35b610192610669565b60405161019f9190613b18565b60405180910390f35b6101c260048036038101906101bd91906132ea565b6106fb565b6040516101cf9190613a3d565b60405180910390f35b6101f260048036038101906101ed919061325c565b610780565b005b61020e60048036038101906102099190613156565b610898565b005b61022a60048036038101906102259190613156565b6108f8565b005b610246600480360381019061024191906132ea565b610918565b6040516102539190613a3d565b60405180910390f35b610276600480360381019061027191906130f1565b6109ca565b6040516102839190613eb1565b60405180910390f35b6102a660048036038101906102a191906130f1565b610a82565b6040516102b39190613eb1565b60405180910390f35b6102d660048036038101906102d191906132ea565b610a9a565b005b6102e0610f62565b6040516102ed9190613b18565b60405180910390f35b610310600480360381019061030b91906132ea565b610ff4565b60405161032296959493929190613ecc565b60405180910390f35b61034560048036038101906103409190613220565b611140565b005b610361600480360381019061035c91906131a5565b611156565b005b61036b6111b8565b6040516103789190613adb565b60405180910390f35b610389611363565b60405161039a959493929190613c2c565b60405180910390f35b6103bd60048036038101906103b891906132ea565b611497565b6040516103ca9190613b18565b60405180910390f35b6103db6116b2565b6040516103e89190613e8f565b60405180910390f35b6103f961188a565b005b6104156004803603810190610410919061311a565b611dc0565b6040516104229190613afd565b60405180910390f35b60007f80ac58cd000000000000000000000000000000000000000000000000000000007bffffffffffffffffffffffffffffffffffffffffffffffffffffffff1916827bffffffffffffffffffffffffffffffffffffffffffffffffffffffff191614806104f657507f5b5e139f000000000000000000000000000000000000000000000000000000007bffffffffffffffffffffffffffffffffffffffffffffffffffffffff1916827bffffffffffffffffffffffffffffffffffffffffffffffffffffffff1916145b80610506575061050582612044565b5b9050919050565b610515612f18565b60076040518060a001604052908160008201805461053290614212565b80601f016020809104026020016040519081016040528092919081815260200182805461055e90614212565b80156105ab5780601f10610580576101008083540402835291602001916105ab565b820191906000526020600020905b81548152906001019060200180831161058e57829003601f168201915b505050505081526020016001820180546105c490614212565b80601f01602080910402602001604051908101604052809291908181526020018280546105f090614212565b801561063d5780601f106106125761010080835404028352916020019161063d565b820191906000526020600020905b81548152906001019060200180831161062057829003601f168201915b505050505081526020016002820154815260200160038201548152602001600482015481525050905090565b60606000805461067890614212565b80601f01602080910402602001604051908101604052809291908181526020018280546106a490614212565b80156106f15780601f106106c6576101008083540402835291602001916106f1565b820191906000526020600020905b8154815290600101906020018083116106d457829003601f168201915b5050505050905090565b6000610706826120ae565b610745576040517f08c379a000000000000000000000000000000000000000000000000000000000815260040161073c90613dcd565b60405180910390fd5b6004600083815260200190815260200160002060009054906101000a900473ffffffffffffffffffffffffffffffffffffffff169050919050565b600061078b82610918565b90508073ffffffffffffffffffffffffffffffffffffffff168373ffffffffffffffffffffffffffffffffffffffff1614156107fc576040517f08c379a00000000000000000000000000000000000000000000000000000000081526004016107f390613e0d565b60405180910390fd5b8073ffffffffffffffffffffffffffffffffffffffff1661081b61211a565b73ffffffffffffffffffffffffffffffffffffffff16148061084a57506108498161084461211a565b611dc0565b5b610889576040517f08c379a000000000000000000000000000000000000000000000000000000000815260040161088090613d4d565b60405180910390fd5b6108938383612122565b505050565b6108a96108a361211a565b826121db565b6108e8576040517f08c379a00000000000000000000000000000000000000000000000000000000081526004016108df90613e2d565b60405180910390fd5b6108f38383836122b9565b505050565b61091383838360405180602001604052806000815250611156565b505050565b6000806002600084815260200190815260200160002060009054906101000a900473ffffffffffffffffffffffffffffffffffffffff169050600073ffffffffffffffffffffffffffffffffffffffff168173ffffffffffffffffffffffffffffffffffffffff1614156109c1576040517f08c379a00000000000000000000000000000000000000000000000000000000081526004016109b890613d8d565b60405180910390fd5b80915050919050565b60008073ffffffffffffffffffffffffffffffffffffffff168273ffffffffffffffffffffffffffffffffffffffff161415610a3b576040517f08c379a0000000000000000000000000000000000000000000000000000000008152600401610a3290613d6d565b60405180910390fd5b600360008373ffffffffffffffffffffffffffffffffffffffff1673ffffffffffffffffffffffffffffffffffffffff168152602001908152602001600020549050919050565b600d6020528060005260406000206000915090505481565b6000610aa66006612515565b9050610ab23382612523565b6040518060c00160405280838152602001600c8481548110610afd577f4e487b7100000000000000000000000000000000000000000000000000000000600052603260045260246000fd5b90600052602060002090600602016001018054610b1990614212565b80601f0160208091040260200160405190810160405280929190818152602001828054610b4590614212565b8015610b925780601f10610b6757610100808354040283529160200191610b92565b820191906000526020600020905b815481529060010190602001808311610b7557829003601f168201915b50505050508152602001600c8481548110610bd6577f4e487b7100000000000000000000000000000000000000000000000000000000600052603260045260246000fd5b90600052602060002090600602016002018054610bf290614212565b80601f0160208091040260200160405190810160405280929190818152602001828054610c1e90614212565b8015610c6b5780601f10610c4057610100808354040283529160200191610c6b565b820191906000526020600020905b815481529060010190602001808311610c4e57829003601f168201915b50505050508152602001600c8481548110610caf577f4e487b7100000000000000000000000000000000000000000000000000000000600052603260045260246000fd5b9060005260206000209060060201600301548152602001600c8481548110610d00577f4e487b7100000000000000000000000000000000000000000000000000000000600052603260045260246000fd5b9060005260206000209060060201600401548152602001600c8481548110610d51577f4e487b7100000000000000000000000000000000000000000000000000000000600052603260045260246000fd5b906000526020600020906006020160050154815250600e6000838152602001908152602001600020600082015181600001556020820151816001019080519060200190610d9f929190612f47565b506040820151816002019080519060200190610dbc929190612f47565b50606082015181600301556080820151816004015560a08201518160050155905050610ed5604051806060016040528060358152602001614a9260359139600c8481548110610e34577f4e487b7100000000000000000000000000000000000000000000000000000000600052603260045260246000fd5b90600052602060002090600602016001018054610e5090614212565b80601f0160208091040260200160405190810160405280929190818152602001828054610e7c90614212565b8015610ec95780601f10610e9e57610100808354040283529160200191610ec9565b820191906000526020600020905b815481529060010190602001808311610eac57829003601f168201915b50505050508385612541565b80600d60003373ffffffffffffffffffffffffffffffffffffffff1673ffffffffffffffffffffffffffffffffffffffff16815260200190815260200160002081905550610f23600661202e565b7f3a8a89b59a31c39a36febecb987e0657ab7b7c73b60ebacb44dcb9886c2d5c8a338284604051610f5693929190613aa4565b60405180910390a15050565b606060018054610f7190614212565b80601f0160208091040260200160405190810160405280929190818152602001828054610f9d90614212565b8015610fea5780601f10610fbf57610100808354040283529160200191610fea565b820191906000526020600020905b815481529060010190602001808311610fcd57829003601f168201915b5050505050905090565b600e60205280600052604060002060009150905080600001549080600101805461101d90614212565b80601f016020809104026020016040519081016040528092919081815260200182805461104990614212565b80156110965780601f1061106b57610100808354040283529160200191611096565b820191906000526020600020905b81548152906001019060200180831161107957829003601f168201915b5050505050908060020180546110ab90614212565b80601f01602080910402602001604051908101604052809291908181526020018280546110d790614212565b80156111245780601f106110f957610100808354040283529160200191611124565b820191906000526020600020905b81548152906001019060200180831161110757829003601f168201915b5050505050908060030154908060040154908060050154905086565b61115261114b61211a565b83836125e3565b5050565b61116761116161211a565b836121db565b6111a6576040517f08c379a000000000000000000000000000000000000000000000000000000000815260040161119d90613e2d565b60405180910390fd5b6111b284848484612750565b50505050565b6060600c805480602002602001604051908101604052809291908181526020016000905b8282101561135a57838290600052602060002090600602016040518060c00160405290816000820154815260200160018201805461121990614212565b80601f016020809104026020016040519081016040528092919081815260200182805461124590614212565b80156112925780601f1061126757610100808354040283529160200191611292565b820191906000526020600020905b81548152906001019060200180831161127557829003601f168201915b505050505081526020016002820180546112ab90614212565b80601f01602080910402602001604051908101604052809291908181526020018280546112d790614212565b80156113245780601f106112f957610100808354040283529160200191611324565b820191906000526020600020905b81548152906001019060200180831161130757829003601f168201915b505050505081526020016003820154815260200160048201548152602001600582015481525050815260200190600101906111dc565b50505050905090565b600780600001805461137490614212565b80601f01602080910402602001604051908101604052809291908181526020018280546113a090614212565b80156113ed5780601f106113c2576101008083540402835291602001916113ed565b820191906000526020600020905b8154815290600101906020018083116113d057829003601f168201915b50505050509080600101805461140290614212565b80601f016020809104026020016040519081016040528092919081815260200182805461142e90614212565b801561147b5780601f106114505761010080835404028352916020019161147b565b820191906000526020600020905b81548152906001019060200180831161145e57829003601f168201915b5050505050908060020154908060030154908060040154905085565b60606000600e60008481526020019081526020016000206040518060c0016040529081600082015481526020016001820180546114d390614212565b80601f01602080910402602001604051908101604052809291908181526020018280546114ff90614212565b801561154c5780601f106115215761010080835404028352916020019161154c565b820191906000526020600020905b81548152906001019060200180831161152f57829003601f168201915b5050505050815260200160028201805461156590614212565b80601f016020809104026020016040519081016040528092919081815260200182805461159190614212565b80156115de5780601f106115b3576101008083540402835291602001916115de565b820191906000526020600020905b8154815290600101906020018083116115c157829003601f168201915b5050505050815260200160038201548152602001600482015481526020016005820154815250509050600061161682606001516127ac565b9050600061162783608001516127ac565b905060006116388460a001516127ac565b9050600061167e856020015161164d896127ac565b876040015187878760405160200161166a96959493929190613976565b604051602081830303815290604052612959565b90506000816040516020016116939190613a1b565b6040516020818303038152906040529050809650505050505050919050565b6116ba612fcd565b6000600d60003373ffffffffffffffffffffffffffffffffffffffff1673ffffffffffffffffffffffffffffffffffffffff168152602001908152602001600020549050600081111561187957600e60008281526020019081526020016000206040518060c00160405290816000820154815260200160018201805461173f90614212565b80601f016020809104026020016040519081016040528092919081815260200182805461176b90614212565b80156117b85780601f1061178d576101008083540402835291602001916117b8565b820191906000526020600020905b81548152906001019060200180831161179b57829003601f168201915b505050505081526020016002820180546117d190614212565b80601f01602080910402602001604051908101604052809291908181526020018280546117fd90614212565b801561184a5780601f1061181f5761010080835404028352916020019161184a565b820191906000526020600020905b81548152906001019060200180831161182d57829003601f168201915b505050505081526020016003820154815260200160048201548152602001600582015481525050915050611887565b611881612fcd565b80925050505b90565b6000600d60003373ffffffffffffffffffffffffffffffffffffffff1673ffffffffffffffffffffffffffffffffffffffff1681526020019081526020016000205490506000600e6000838152602001908152602001600020905061199d6040518060600160405280602a8152602001614a68602a913982600101805461191090614212565b80601f016020809104026020016040519081016040528092919081815260200182805461193c90614212565b80156119895780601f1061195e57610100808354040283529160200191611989565b820191906000526020600020905b81548152906001019060200180831161196c57829003601f168201915b505050505083600301548460050154612541565b611a756040518060400160405280601681526020017f25732068617320256420485020616e6420256420414400000000000000000000815250600760000180546119e690614212565b80601f0160208091040260200160405190810160405280929190818152602001828054611a1290614212565b8015611a5f5780601f10611a3457610100808354040283529160200191611a5f565b820191906000526020600020905b815481529060010190602001808311611a4257829003601f168201915b5050505050600760020154600760040154612541565b6000816003015411611abc576040517f08c379a0000000000000000000000000000000000000000000000000000000008152600401611ab390613ccd565b60405180910390fd5b600060076002015411611b04576040517f08c379a0000000000000000000000000000000000000000000000000000000008152600401611afb90613e4d565b60405180910390fd5b806005015460076002015411611b24576000600760020181905550611b45565b806005015460076002016000828254611b3d9190614128565b925050819055505b600760040154816003015411611b645760008160030181905550611b85565b600760040154816003016000828254611b7d9190614128565b925050819055505b611c39604051806060016040528060298152602001614ac760299139826001018054611bb090614212565b80601f0160208091040260200160405190810160405280929190818152602001828054611bdc90614212565b8015611c295780601f10611bfe57610100808354040283529160200191611c29565b820191906000526020600020905b815481529060010190602001808311611c0c57829003601f168201915b5050505050600760020154611eed565b611d7a604051806060016040528060258152602001614af06025913960076000018054611c6590614212565b80601f0160208091040260200160405190810160405280929190818152602001828054611c9190614212565b8015611cde5780601f10611cb357610100808354040283529160200191611cde565b820191906000526020600020905b815481529060010190602001808311611cc157829003601f168201915b5050505050836001018054611cf290614212565b80601f0160208091040260200160405190810160405280929190818152602001828054611d1e90614212565b8015611d6b5780601f10611d4057610100808354040283529160200191611d6b565b820191906000526020600020905b815481529060010190602001808311611d4e57829003601f168201915b50505050508460030154611f8c565b7f33da8246a6219418e0811d896bfd5b2cbfbc3364dfdf407b70f554487bdb68b46007600201548260030154604051611db4929190613f3b565b60405180910390a15050565b6000600560008473ffffffffffffffffffffffffffffffffffffffff1673ffffffffffffffffffffffffffffffffffffffff16815260200190815260200160002060008373ffffffffffffffffffffffffffffffffffffffff1673ffffffffffffffffffffffffffffffffffffffff16815260200190815260200160002060009054906101000a900460ff16905092915050565b611eea81604051602401611e689190613b18565b6040516020818303038152906040527f41304fac000000000000000000000000000000000000000000000000000000007bffffffffffffffffffffffffffffffffffffffffffffffffffffffff19166020820180517bffffffffffffffffffffffffffffffffffffffffffffffffffffffff8381831617835250505050612b17565b50565b611f87838383604051602401611f0593929190613b94565b6040516020818303038152906040527ff362ca59000000000000000000000000000000000000000000000000000000007bffffffffffffffffffffffffffffffffffffffffffffffffffffffff19166020820180517bffffffffffffffffffffffffffffffffffffffffffffffffffffffff8381831617835250505050612b17565b505050565b61202884848484604051602401611fa69493929190613b3a565b6040516020818303038152906040527f9fd009f5000000000000000000000000000000000000000000000000000000007bffffffffffffffffffffffffffffffffffffffffffffffffffffffff19166020820180517bffffffffffffffffffffffffffffffffffffffffffffffffffffffff8381831617835250505050612b17565b50505050565b6001816000016000828254019250508190555050565b60007f01ffc9a7000000000000000000000000000000000000000000000000000000007bffffffffffffffffffffffffffffffffffffffffffffffffffffffff1916827bffffffffffffffffffffffffffffffffffffffffffffffffffffffff1916149050919050565b60008073ffffffffffffffffffffffffffffffffffffffff166002600084815260200190815260200160002060009054906101000a900473ffffffffffffffffffffffffffffffffffffffff1673ffffffffffffffffffffffffffffffffffffffff1614159050919050565b600033905090565b816004600083815260200190815260200160002060006101000a81548173ffffffffffffffffffffffffffffffffffffffff021916908373ffffffffffffffffffffffffffffffffffffffff160217905550808273ffffffffffffffffffffffffffffffffffffffff1661219583610918565b73ffffffffffffffffffffffffffffffffffffffff167f8c5be1e5ebec7d5bd14f71427d1e84f3dd0314c0f7b2291e5b200ac8c7c3b92560405160405180910390a45050565b60006121e6826120ae565b612225576040517f08c379a000000000000000000000000000000000000000000000000000000000815260040161221c90613d2d565b60405180910390fd5b600061223083610918565b90508073ffffffffffffffffffffffffffffffffffffffff168473ffffffffffffffffffffffffffffffffffffffff16148061229f57508373ffffffffffffffffffffffffffffffffffffffff16612287846106fb565b73ffffffffffffffffffffffffffffffffffffffff16145b806122b057506122af8185611dc0565b5b91505092915050565b8273ffffffffffffffffffffffffffffffffffffffff166122d982610918565b73ffffffffffffffffffffffffffffffffffffffff161461232f576040517f08c379a000000000000000000000000000000000000000000000000000000000815260040161232690613ded565b60405180910390fd5b600073ffffffffffffffffffffffffffffffffffffffff168273ffffffffffffffffffffffffffffffffffffffff16141561239f576040517f08c379a000000000000000000000000000000000000000000000000000000000815260040161239690613ced565b60405180910390fd5b6123aa838383612b40565b6123b5600082612122565b6001600360008573ffffffffffffffffffffffffffffffffffffffff1673ffffffffffffffffffffffffffffffffffffffff16815260200190815260200160002060008282546124059190614128565b925050819055506001600360008473ffffffffffffffffffffffffffffffffffffffff1673ffffffffffffffffffffffffffffffffffffffff168152602001908152602001600020600082825461245c9190614047565b92505081905550816002600083815260200190815260200160002060006101000a81548173ffffffffffffffffffffffffffffffffffffffff021916908373ffffffffffffffffffffffffffffffffffffffff160217905550808273ffffffffffffffffffffffffffffffffffffffff168473ffffffffffffffffffffffffffffffffffffffff167fddf252ad1be2c89b69c2b068fc378daa952ba7f163c4a11628f55a4df523b3ef60405160405180910390a4505050565b600081600001549050919050565b61253d828260405180602001604052806000815250612b45565b5050565b6125dd8484848460405160240161255b9493929190613bd9565b6040516020818303038152906040527fd5cf17d0000000000000000000000000000000000000000000000000000000007bffffffffffffffffffffffffffffffffffffffffffffffffffffffff19166020820180517bffffffffffffffffffffffffffffffffffffffffffffffffffffffff8381831617835250505050612b17565b50505050565b8173ffffffffffffffffffffffffffffffffffffffff168373ffffffffffffffffffffffffffffffffffffffff161415612652576040517f08c379a000000000000000000000000000000000000000000000000000000000815260040161264990613d0d565b60405180910390fd5b80600560008573ffffffffffffffffffffffffffffffffffffffff1673ffffffffffffffffffffffffffffffffffffffff16815260200190815260200160002060008473ffffffffffffffffffffffffffffffffffffffff1673ffffffffffffffffffffffffffffffffffffffff16815260200190815260200160002060006101000a81548160ff0219169083151502179055508173ffffffffffffffffffffffffffffffffffffffff168373ffffffffffffffffffffffffffffffffffffffff167f17307eab39ab6107e8899845ad3d59bd9653f200f220920489ca2b5937696c31836040516127439190613afd565b60405180910390a3505050565b61275b8484846122b9565b61276784848484612ba0565b6127a6576040517f08c379a000000000000000000000000000000000000000000000000000000000815260040161279d90613c8d565b60405180910390fd5b50505050565b606060008214156127f4576040518060400160405280600181526020017f30000000000000000000000000000000000000000000000000000000000000008152509050612954565b600082905060005b6000821461282657808061280f90614275565b915050600a8261281f919061409d565b91506127fc565b60008167ffffffffffffffff811115612868577f4e487b7100000000000000000000000000000000000000000000000000000000600052604160045260246000fd5b6040519080825280601f01601f19166020018201604052801561289a5781602001600182028036833780820191505090505b5090505b6000851461294d576001826128b39190614128565b9150600a856128c291906142be565b60306128ce9190614047565b60f81b81838151811061290a577f4e487b7100000000000000000000000000000000000000000000000000000000600052603260045260246000fd5b60200101907effffffffffffffffffffffffffffffffffffffffffffffffffffffffffffff1916908160001a905350600a85612946919061409d565b945061289e565b8093505050505b919050565b606060008251905060008114156129825760405180602001604052806000815250915050612b12565b600060036002836129939190614047565b61299d919061409d565b60046129a991906140ce565b905060006020826129ba9190614047565b67ffffffffffffffff8111156129f9577f4e487b7100000000000000000000000000000000000000000000000000000000600052604160045260246000fd5b6040519080825280601f01601f191660200182016040528015612a2b5781602001600182028036833780820191505090505b5090506000604051806060016040528060408152602001614a28604091399050600181016020830160005b86811015612acf5760038101905062ffffff818a015116603f8160121c168401518060081b905060ff603f83600c1c1686015116810190508060081b905060ff603f8360061c1686015116810190508060081b905060ff603f831686015116810190508060e01b90508084526004840193505050612a56565b506003860660018114612ae95760028114612af957612b04565b613d3d60f01b6002830352612b04565b603d60f81b60018303525b508484525050819450505050505b919050565b60008151905060006a636f6e736f6c652e6c6f679050602083016000808483855afa5050505050565b505050565b612b4f8383612d37565b612b5c6000848484612ba0565b612b9b576040517f08c379a0000000000000000000000000000000000000000000000000000000008152600401612b9290613c8d565b60405180910390fd5b505050565b6000612bc18473ffffffffffffffffffffffffffffffffffffffff16612f05565b15612d2a578373ffffffffffffffffffffffffffffffffffffffff1663150b7a02612bea61211a565b8786866040518563ffffffff1660e01b8152600401612c0c9493929190613a58565b602060405180830381600087803b158015612c2657600080fd5b505af1925050508015612c5757506040513d601f19601f82011682018060405250810190612c5491906132c1565b60015b612cda573d8060008114612c87576040519150601f19603f3d011682016040523d82523d6000602084013e612c8c565b606091505b50600081511415612cd2576040517f08c379a0000000000000000000000000000000000000000000000000000000008152600401612cc990613c8d565b60405180910390fd5b805181602001fd5b63150b7a0260e01b7bffffffffffffffffffffffffffffffffffffffffffffffffffffffff1916817bffffffffffffffffffffffffffffffffffffffffffffffffffffffff191614915050612d2f565b600190505b949350505050565b600073ffffffffffffffffffffffffffffffffffffffff168273ffffffffffffffffffffffffffffffffffffffff161415612da7576040517f08c379a0000000000000000000000000000000000000000000000000000000008152600401612d9e90613dad565b60405180910390fd5b612db0816120ae565b15612df0576040517f08c379a0000000000000000000000000000000000000000000000000000000008152600401612de790613cad565b60405180910390fd5b612dfc60008383612b40565b6001600360008473ffffffffffffffffffffffffffffffffffffffff1673ffffffffffffffffffffffffffffffffffffffff1681526020019081526020016000206000828254612e4c9190614047565b92505081905550816002600083815260200190815260200160002060006101000a81548173ffffffffffffffffffffffffffffffffffffffff021916908373ffffffffffffffffffffffffffffffffffffffff160217905550808273ffffffffffffffffffffffffffffffffffffffff16600073ffffffffffffffffffffffffffffffffffffffff167fddf252ad1be2c89b69c2b068fc378daa952ba7f163c4a11628f55a4df523b3ef60405160405180910390a45050565b600080823b905060008111915050919050565b6040518060a0016040528060608152602001606081526020016000815260200160008152602001600081525090565b828054612f5390614212565b90600052602060002090601f016020900481019282612f755760008555612fbc565b82601f10612f8e57805160ff1916838001178555612fbc565b82800160010185558215612fbc579182015b82811115612fbb578251825591602001919060010190612fa0565b5b509050612fc99190613003565b5090565b6040518060c001604052806000815260200160608152602001606081526020016000815260200160008152602001600081525090565b5b8082111561301c576000816000905550600101613004565b5090565b600061303361302e84613f89565b613f64565b90508281526020810184848401111561304b57600080fd5b6130568482856141d0565b509392505050565b60008135905061306d816149cb565b92915050565b600081359050613082816149e2565b92915050565b600081359050613097816149f9565b92915050565b6000815190506130ac816149f9565b92915050565b600082601f8301126130c357600080fd5b81356130d3848260208601613020565b91505092915050565b6000813590506130eb81614a10565b92915050565b60006020828403121561310357600080fd5b60006131118482850161305e565b91505092915050565b6000806040838503121561312d57600080fd5b600061313b8582860161305e565b925050602061314c8582860161305e565b9150509250929050565b60008060006060848603121561316b57600080fd5b60006131798682870161305e565b935050602061318a8682870161305e565b925050604061319b868287016130dc565b9150509250925092565b600080600080608085870312156131bb57600080fd5b60006131c98782880161305e565b94505060206131da8782880161305e565b93505060406131eb878288016130dc565b925050606085013567ffffffffffffffff81111561320857600080fd5b613214878288016130b2565b91505092959194509250565b6000806040838503121561323357600080fd5b60006132418582860161305e565b925050602061325285828601613073565b9150509250929050565b6000806040838503121561326f57600080fd5b600061327d8582860161305e565b925050602061328e858286016130dc565b9150509250929050565b6000602082840312156132aa57600080fd5b60006132b884828501613088565b91505092915050565b6000602082840312156132d357600080fd5b60006132e18482850161309d565b91505092915050565b6000602082840312156132fc57600080fd5b600061330a848285016130dc565b91505092915050565b600061331f8383613838565b905092915050565b6133308161415c565b82525050565b600061334182613fca565b61334b8185613ff8565b93508360208202850161335d85613fba565b8060005b85811015613399578484038952815161337a8582613313565b945061338583613feb565b925060208a01995050600181019050613361565b50829750879550505050505092915050565b6133b48161416e565b82525050565b60006133c582613fd5565b6133cf8185614009565b93506133df8185602086016141df565b6133e8816143ab565b840191505092915050565b60006133fe82613fe0565b613408818561401a565b93506134188185602086016141df565b613421816143ab565b840191505092915050565b600061343782613fe0565b613441818561402b565b93506134518185602086016141df565b61345a816143ab565b840191505092915050565b600061347082613fe0565b61347a818561403c565b935061348a8185602086016141df565b80840191505092915050565b60006134a3600b8361403c565b91506134ae826143bc565b600b82019050919050565b60006134c660328361402b565b91506134d1826143e5565b604082019050919050565b60006134e9601c8361402b565b91506134f482614434565b602082019050919050565b600061350c60438361402b565b91506135178261445d565b606082019050919050565b600061352f600e8361403c565b915061353a826144d2565b600e82019050919050565b600061355260248361402b565b915061355d826144fb565b604082019050919050565b600061357560198361402b565b91506135808261454a565b602082019050919050565b6000613598602c8361402b565b91506135a382614573565b604082019050919050565b60006135bb60388361402b565b91506135c6826145c2565b604082019050919050565b60006135de602a8361402b565b91506135e982614611565b604082019050919050565b600061360160298361402b565b915061360c82614660565b604082019050919050565b600061362460048361403c565b915061362f826146af565b600482019050919050565b600061364760208361402b565b9150613652826146d8565b602082019050919050565b600061366a602c8361402b565b915061367582614701565b604082019050919050565b600061368d60578361403c565b915061369882614750565b605782019050919050565b60006136b060298361402b565b91506136bb826147c5565b604082019050919050565b60006136d3600a8361403c565b91506136de82614814565b600a82019050919050565b60006136f660218361402b565b91506137018261483d565b604082019050919050565b6000613719601d8361403c565b91506137248261488c565b601d82019050919050565b600061373c60318361402b565b9150613747826148b5565b604082019050919050565b600061375f601c8361402b565b915061376a82614904565b602082019050919050565b6000613782603d8361403c565b915061378d8261492d565b603d82019050919050565b60006137a5602d8361403c565b91506137b08261497c565b602d82019050919050565b600060a08301600083015184820360008601526137d882826133f3565b915050602083015184820360208601526137f282826133f3565b91505060408301516138076040860182613958565b50606083015161381a6060860182613958565b50608083015161382d6080860182613958565b508091505092915050565b600060c0830160008301516138506000860182613958565b506020830151848203602086015261386882826133f3565b9150506040830151848203604086015261388282826133f3565b91505060608301516138976060860182613958565b5060808301516138aa6080860182613958565b5060a08301516138bd60a0860182613958565b508091505092915050565b600060c0830160008301516138e06000860182613958565b50602083015184820360208601526138f882826133f3565b9150506040830151848203604086015261391282826133f3565b91505060608301516139276060860182613958565b50608083015161393a6080860182613958565b5060a083015161394d60a0860182613958565b508091505092915050565b613961816141c6565b82525050565b613970816141c6565b82525050565b6000613981826136c6565b915061398d8289613465565b915061399882613496565b91506139a48288613465565b91506139af82613680565b91506139bb8287613465565b91506139c682613775565b91506139d28286613465565b91506139dd82613522565b91506139e98285613465565b91506139f482613798565b9150613a008284613465565b9150613a0b82613617565b9150819050979650505050505050565b6000613a268261370c565b9150613a328284613465565b915081905092915050565b6000602082019050613a526000830184613327565b92915050565b6000608082019050613a6d6000830187613327565b613a7a6020830186613327565b613a876040830185613967565b8181036060830152613a9981846133ba565b905095945050505050565b6000606082019050613ab96000830186613327565b613ac66020830185613967565b613ad36040830184613967565b949350505050565b60006020820190508181036000830152613af58184613336565b905092915050565b6000602082019050613b1260008301846133ab565b92915050565b60006020820190508181036000830152613b32818461342c565b905092915050565b60006080820190508181036000830152613b54818761342c565b90508181036020830152613b68818661342c565b90508181036040830152613b7c818561342c565b9050613b8b6060830184613967565b95945050505050565b60006060820190508181036000830152613bae818661342c565b90508181036020830152613bc2818561342c565b9050613bd16040830184613967565b949350505050565b60006080820190508181036000830152613bf3818761342c565b90508181036020830152613c07818661342c565b9050613c166040830185613967565b613c236060830184613967565b95945050505050565b600060a0820190508181036000830152613c46818861342c565b90508181036020830152613c5a818761342c565b9050613c696040830186613967565b613c766060830185613967565b613c836080830184613967565b9695505050505050565b60006020820190508181036000830152613ca6816134b9565b9050919050565b60006020820190508181036000830152613cc6816134dc565b9050919050565b60006020820190508181036000830152613ce6816134ff565b9050919050565b60006020820190508181036000830152613d0681613545565b9050919050565b60006020820190508181036000830152613d2681613568565b9050919050565b60006020820190508181036000830152613d468161358b565b9050919050565b60006020820190508181036000830152613d66816135ae565b9050919050565b60006020820190508181036000830152613d86816135d1565b9050919050565b60006020820190508181036000830152613da6816135f4565b9050919050565b60006020820190508181036000830152613dc68161363a565b9050919050565b60006020820190508181036000830152613de68161365d565b9050919050565b60006020820190508181036000830152613e06816136a3565b9050919050565b60006020820190508181036000830152613e26816136e9565b9050919050565b60006020820190508181036000830152613e468161372f565b9050919050565b60006020820190508181036000830152613e6681613752565b9050919050565b60006020820190508181036000830152613e8781846137bb565b905092915050565b60006020820190508181036000830152613ea981846138c8565b905092915050565b6000602082019050613ec66000830184613967565b92915050565b600060c082019050613ee16000830189613967565b8181036020830152613ef3818861342c565b90508181036040830152613f07818761342c565b9050613f166060830186613967565b613f236080830185613967565b613f3060a0830184613967565b979650505050505050565b6000604082019050613f506000830185613967565b613f5d6020830184613967565b9392505050565b6000613f6e613f7f565b9050613f7a8282614244565b919050565b6000604051905090565b600067ffffffffffffffff821115613fa457613fa361437c565b5b613fad826143ab565b9050602081019050919050565b6000819050602082019050919050565b600081519050919050565b600081519050919050565b600081519050919050565b6000602082019050919050565b600082825260208201905092915050565b600082825260208201905092915050565b600082825260208201905092915050565b600082825260208201905092915050565b600081905092915050565b6000614052826141c6565b915061405d836141c6565b9250827fffffffffffffffffffffffffffffffffffffffffffffffffffffffffffffffff03821115614092576140916142ef565b5b828201905092915050565b60006140a8826141c6565b91506140b3836141c6565b9250826140c3576140c261431e565b5b828204905092915050565b60006140d9826141c6565b91506140e4836141c6565b9250817fffffffffffffffffffffffffffffffffffffffffffffffffffffffffffffffff048311821515161561411d5761411c6142ef565b5b828202905092915050565b6000614133826141c6565b915061413e836141c6565b925082821015614151576141506142ef565b5b828203905092915050565b6000614167826141a6565b9050919050565b60008115159050919050565b60007fffffffff0000000000000000000000000000000000000000000000000000000082169050919050565b600073ffffffffffffffffffffffffffffffffffffffff82169050919050565b6000819050919050565b82818337600083830152505050565b60005b838110156141fd5780820151818401526020810190506141e2565b8381111561420c576000848401525b50505050565b6000600282049050600182168061422a57607f821691505b6020821081141561423e5761423d61434d565b5b50919050565b61424d826143ab565b810181811067ffffffffffffffff8211171561426c5761426b61437c565b5b80604052505050565b6000614280826141c6565b91507fffffffffffffffffffffffffffffffffffffffffffffffffffffffffffffffff8214156142b3576142b26142ef565b5b600182019050919050565b60006142c9826141c6565b91506142d4836141c6565b9250826142e4576142e361431e565b5b828206905092915050565b7f4e487b7100000000000000000000000000000000000000000000000000000000600052601160045260246000fd5b7f4e487b7100000000000000000000000000000000000000000000000000000000600052601260045260246000fd5b7f4e487b7100000000000000000000000000000000000000000000000000000000600052602260045260246000fd5b7f4e487b7100000000000000000000000000000000000000000000000000000000600052604160045260246000fd5b6000601f19601f8301169050919050565b7f202d2d204e465420233a20000000000000000000000000000000000000000000600082015250565b7f4552433732313a207472616e7366657220746f206e6f6e20455243373231526560008201527f63656976657220696d706c656d656e7465720000000000000000000000000000602082015250565b7f4552433732313a20746f6b656e20616c7265616479206d696e74656400000000600082015250565b7f414c455254542120596f757220706c617965722063616e6e6f7420617474616360008201527f6b206265636175736520796f7520646f206e6f74206861766520656e6f75676860208201527f2048500000000000000000000000000000000000000000000000000000000000604082015250565b7f2c20226d61785f76616c7565223a000000000000000000000000000000000000600082015250565b7f4552433732313a207472616e7366657220746f20746865207a65726f2061646460008201527f7265737300000000000000000000000000000000000000000000000000000000602082015250565b7f4552433732313a20617070726f766520746f2063616c6c657200000000000000600082015250565b7f4552433732313a206f70657261746f7220717565727920666f72206e6f6e657860008201527f697374656e7420746f6b656e0000000000000000000000000000000000000000602082015250565b7f4552433732313a20617070726f76652063616c6c6572206973206e6f74206f7760008201527f6e6572206e6f7220617070726f76656420666f7220616c6c0000000000000000602082015250565b7f4552433732313a2062616c616e636520717565727920666f7220746865207a6560008201527f726f206164647265737300000000000000000000000000000000000000000000602082015250565b7f4552433732313a206f776e657220717565727920666f72206e6f6e657869737460008201527f656e7420746f6b656e0000000000000000000000000000000000000000000000602082015250565b7f7d205d7d00000000000000000000000000000000000000000000000000000000600082015250565b7f4552433732313a206d696e7420746f20746865207a65726f2061646472657373600082015250565b7f4552433732313a20617070726f76656420717565727920666f72206e6f6e657860008201527f697374656e7420746f6b656e0000000000000000000000000000000000000000602082015250565b7f222c20226465736372697074696f6e223a20224e46542074686174206c65747360008201527f20796f7520626174746c65207769746820796f7572206661766f72697465206660208201527f6f6f7462616c6c657273222c2022696d616765223a2022000000000000000000604082015250565b7f4552433732313a207472616e73666572206f6620746f6b656e2074686174206960008201527f73206e6f74206f776e0000000000000000000000000000000000000000000000602082015250565b7f7b226e616d65223a202200000000000000000000000000000000000000000000600082015250565b7f4552433732313a20617070726f76616c20746f2063757272656e74206f776e6560008201527f7200000000000000000000000000000000000000000000000000000000000000602082015250565b7f646174613a6170706c69636174696f6e2f6a736f6e3b6261736536342c000000600082015250565b7f4552433732313a207472616e736665722063616c6c6572206973206e6f74206f60008201527f776e6572206e6f7220617070726f766564000000000000000000000000000000602082015250565b7f414c455254542120426f737320697320616c7265616479204445414400000000600082015250565b7f222c202261747472696275746573223a205b207b202274726169745f7479706560008201527f223a20224865616c746820506f696e7473222c202276616c7565223a20000000602082015250565b7f7d2c207b202274726169745f74797065223a202241747461636b2044616d616760008201527f65222c202276616c7565223a2000000000000000000000000000000000000000602082015250565b6149d48161415c565b81146149df57600080fd5b50565b6149eb8161416e565b81146149f657600080fd5b50565b614a028161417a565b8114614a0d57600080fd5b50565b614a19816141c6565b8114614a2457600080fd5b5056fe4142434445464748494a4b4c4d4e4f505152535455565758595a6162636465666768696a6b6c6d6e6f707172737475767778797a303132333435363738392b2f257320697320726561647920746f2061747461636b207769746820256420485020616e642025642041444d696e74656420746865204e4654202d2d202573207769746820746f6b656e4964202d2d20256420616e64204944202d2d2d2025642573206861732061747461636b65642074686520626f73732e20426f7373206e6f77206861732025642573206861732061747461636b65642025732e20506c61796572206e6f7720686173202564a26469706673582212203157eafd87546a3e2ece8531f97c9edd217b2b65d2d7dc57db0f4d113a70a88f64736f6c63430008040033546865206368617261637465727320617265202573202d2d202573202d2d202564",
  "linkReferences": {},
  "deployedLinkReferences": {}
}