{
  "contractName": "ApprovalWallet",
  "abi": [
    {
      "inputs": [
        {
          "internalType": "address[]",
          "name": "_approvers",
          "type": "address[]"
        },
        {
          "internalType": "uint256",
          "name": "_quorum",
          "type": "uint256"
        }
      ],
      "stateMutability": "nonpayable",
      "type": "constructor"
    },
    {
      "inputs": [
        {
          "internalType": "address",
          "name": "",
          "type": "address"
        },
        {
          "internalType": "uint256",
          "name": "",
          "type": "uint256"
        }
      ],
      "name": "approval",
      "outputs": [
        {
          "internalType": "bool",
          "name": "",
          "type": "bool"
        }
      ],
      "stateMutability": "view",
      "type": "function",
      "constant": true
    },
    {
      "inputs": [
        {
          "internalType": "uint256",
          "name": "",
          "type": "uint256"
        }
      ],
      "name": "approvers",
      "outputs": [
        {
          "internalType": "address",
          "name": "",
          "type": "address"
        }
      ],
      "stateMutability": "view",
      "type": "function",
      "constant": true
    },
    {
      "inputs": [],
      "name": "quorum",
      "outputs": [
        {
          "internalType": "uint256",
          "name": "",
          "type": "uint256"
        }
      ],
      "stateMutability": "view",
      "type": "function",
      "constant": true
    },
    {
      "inputs": [
        {
          "internalType": "uint256",
          "name": "",
          "type": "uint256"
        }
      ],
      "name": "transfers",
      "outputs": [
        {
          "internalType": "uint256",
          "name": "id",
          "type": "uint256"
        },
        {
          "internalType": "address payable",
          "name": "to",
          "type": "address"
        },
        {
          "internalType": "uint256",
          "name": "amount",
          "type": "uint256"
        },
        {
          "internalType": "bool",
          "name": "sent",
          "type": "bool"
        },
        {
          "internalType": "uint256",
          "name": "noOfApprovers",
          "type": "uint256"
        }
      ],
      "stateMutability": "view",
      "type": "function",
      "constant": true
    },
    {
      "stateMutability": "payable",
      "type": "receive",
      "payable": true
    },
    {
      "inputs": [
        {
          "internalType": "address payable",
          "name": "_to",
          "type": "address"
        },
        {
          "internalType": "uint256",
          "name": "_amount",
          "type": "uint256"
        }
      ],
      "name": "createTransfer",
      "outputs": [],
      "stateMutability": "nonpayable",
      "type": "function"
    },
    {
      "inputs": [
        {
          "internalType": "uint256",
          "name": "_id",
          "type": "uint256"
        }
      ],
      "name": "approveTransfer",
      "outputs": [],
      "stateMutability": "nonpayable",
      "type": "function"
    },
    {
      "inputs": [],
      "name": "getApprovers",
      "outputs": [
        {
          "internalType": "address[]",
          "name": "",
          "type": "address[]"
        }
      ],
      "stateMutability": "view",
      "type": "function",
      "constant": true
    },
    {
      "inputs": [],
      "name": "getTransfers",
      "outputs": [
        {
          "components": [
            {
              "internalType": "uint256",
              "name": "id",
              "type": "uint256"
            },
            {
              "internalType": "address payable",
              "name": "to",
              "type": "address"
            },
            {
              "internalType": "uint256",
              "name": "amount",
              "type": "uint256"
            },
            {
              "internalType": "bool",
              "name": "sent",
              "type": "bool"
            },
            {
              "internalType": "uint256",
              "name": "noOfApprovers",
              "type": "uint256"
            }
          ],
          "internalType": "struct ApprovalWallet.Transfer[]",
          "name": "",
          "type": "tuple[]"
        }
      ],
      "stateMutability": "view",
      "type": "function",
      "constant": true
    }
  ],
  "bytecode": "0x60806040523480156200001157600080fd5b50604051620014c2380380620014c2833981810160405281019062000037919062000336565b81600090805190602001906200004f9291906200005f565b508060018190555050506200039c565b828054828255906000526020600020908101928215620000db579160200282015b82811115620000da5782518260006101000a81548173ffffffffffffffffffffffffffffffffffffffff021916908373ffffffffffffffffffffffffffffffffffffffff1602179055509160200191906001019062000080565b5b509050620000ea9190620000ee565b5090565b5b8082111562000109576000816000905550600101620000ef565b5090565b6000604051905090565b600080fd5b600080fd5b600080fd5b6000601f19601f8301169050919050565b7f4e487b7100000000000000000000000000000000000000000000000000000000600052604160045260246000fd5b620001718262000126565b810181811067ffffffffffffffff8211171562000193576200019262000137565b5b80604052505050565b6000620001a86200010d565b9050620001b6828262000166565b919050565b600067ffffffffffffffff821115620001d957620001d862000137565b5b602082029050602081019050919050565b600080fd5b600073ffffffffffffffffffffffffffffffffffffffff82169050919050565b60006200021c82620001ef565b9050919050565b6200022e816200020f565b81146200023a57600080fd5b50565b6000815190506200024e8162000223565b92915050565b60006200026b6200026584620001bb565b6200019c565b90508083825260208201905060208402830185811115620002915762000290620001ea565b5b835b81811015620002be5780620002a988826200023d565b84526020840193505060208101905062000293565b5050509392505050565b600082601f830112620002e057620002df62000121565b5b8151620002f284826020860162000254565b91505092915050565b6000819050919050565b6200031081620002fb565b81146200031c57600080fd5b50565b600081519050620003308162000305565b92915050565b6000806040838503121562000350576200034f62000117565b5b600083015167ffffffffffffffff8111156200037157620003706200011c565b5b6200037f85828601620002c8565b925050602062000392858286016200031f565b9150509250929050565b61111680620003ac6000396000f3fe60806040526004361061007f5760003560e01c806375247a581161004e57806375247a58146101355780639377d71114610172578063cacca4a0146101b3578063d3650fb8146101dc57610086565b80631703a0181461008b5780632f65142c146100b65780633ac172dd146100e15780636cb3e8ef1461010a57610086565b3661008657005b600080fd5b34801561009757600080fd5b506100a0610219565b6040516100ad9190610a47565b60405180910390f35b3480156100c257600080fd5b506100cb61021f565b6040516100d89190610be4565b60405180910390f35b3480156100ed57600080fd5b5061010860048036038101906101039190610c63565b61030d565b005b34801561011657600080fd5b5061011f6104ed565b60405161012c9190610d73565b60405180910390f35b34801561014157600080fd5b5061015c60048036038101906101579190610dc1565b61057b565b6040516101699190610e10565b60405180910390f35b34801561017e57600080fd5b5061019960048036038101906101949190610e2b565b6105aa565b6040516101aa959493929190610e67565b60405180910390f35b3480156101bf57600080fd5b506101da60048036038101906101d59190610e2b565b61061d565b005b3480156101e857600080fd5b5061020360048036038101906101fe9190610e2b565b6109ef565b6040516102109190610ec9565b60405180910390f35b60015481565b60606003805480602002602001604051908101604052809291908181526020016000905b8282101561030457838290600052602060002090600502016040518060a0016040529081600082015481526020016001820160009054906101000a900473ffffffffffffffffffffffffffffffffffffffff1673ffffffffffffffffffffffffffffffffffffffff1673ffffffffffffffffffffffffffffffffffffffff168152602001600282015481526020016003820160009054906101000a900460ff1615151515815260200160048201548152505081526020019060010190610243565b50505050905090565b6000805b6000805490508110156103a8573373ffffffffffffffffffffffffffffffffffffffff166000828154811061034957610348610ee4565b5b9060005260206000200160009054906101000a900473ffffffffffffffffffffffffffffffffffffffff1673ffffffffffffffffffffffffffffffffffffffff16141561039557600191505b80806103a090610f42565b915050610311565b5060011515811515146103f0576040517f08c379a00000000000000000000000000000000000000000000000000000000081526004016103e790610fe8565b60405180910390fd5b60036040518060a0016040528060038054905081526020018573ffffffffffffffffffffffffffffffffffffffff168152602001848152602001600015158152602001600081525090806001815401808255809150506001900390600052602060002090600502016000909190919091506000820151816000015560208201518160010160006101000a81548173ffffffffffffffffffffffffffffffffffffffff021916908373ffffffffffffffffffffffffffffffffffffffff1602179055506040820151816002015560608201518160030160006101000a81548160ff021916908315150217905550608082015181600401555050505050565b6060600080548060200260200160405190810160405280929190818152602001828054801561057157602002820191906000526020600020905b8160009054906101000a900473ffffffffffffffffffffffffffffffffffffffff1673ffffffffffffffffffffffffffffffffffffffff1681526020019060010190808311610527575b5050505050905090565b60026020528160005260406000206020528060005260406000206000915091509054906101000a900460ff1681565b600381815481106105ba57600080fd5b90600052602060002090600502016000915090508060000154908060010160009054906101000a900473ffffffffffffffffffffffffffffffffffffffff16908060020154908060030160009054906101000a900460ff16908060040154905085565b6000805b6000805490508110156106b8573373ffffffffffffffffffffffffffffffffffffffff166000828154811061065957610658610ee4565b5b9060005260206000200160009054906101000a900473ffffffffffffffffffffffffffffffffffffffff1673ffffffffffffffffffffffffffffffffffffffff1614156106a557600191505b80806106b090610f42565b915050610621565b506001151581151514610700576040517f08c379a00000000000000000000000000000000000000000000000000000000081526004016106f790610fe8565b60405180910390fd5b60001515600260003373ffffffffffffffffffffffffffffffffffffffff1673ffffffffffffffffffffffffffffffffffffffff168152602001908152602001600020600084815260200190815260200160002060009054906101000a900460ff161515146107a4576040517f08c379a000000000000000000000000000000000000000000000000000000000815260040161079b90611054565b60405180910390fd5b60001515600383815481106107bc576107bb610ee4565b5b906000526020600020906005020160030160009054906101000a900460ff1615151461081d576040517f08c379a0000000000000000000000000000000000000000000000000000000008152600401610814906110c0565b60405180910390fd5b6001600260003373ffffffffffffffffffffffffffffffffffffffff1673ffffffffffffffffffffffffffffffffffffffff168152602001908152602001600020600084815260200190815260200160002060006101000a81548160ff0219169083151502179055506003828154811061089a57610899610ee4565b5b906000526020600020906005020160040160008154809291906108bc90610f42565b9190505550600154600383815481106108d8576108d7610ee4565b5b906000526020600020906005020160040154106109eb5760016003838154811061090557610904610ee4565b5b906000526020600020906005020160030160006101000a81548160ff02191690831515021790555060006003838154811061094357610942610ee4565b5b906000526020600020906005020160010160009054906101000a900473ffffffffffffffffffffffffffffffffffffffff16905060006003848154811061098d5761098c610ee4565b5b90600052602060002090600502016002015490508173ffffffffffffffffffffffffffffffffffffffff166108fc829081150290604051600060405180830381858888f193505050501580156109e7573d6000803e3d6000fd5b5050505b5050565b600081815481106109ff57600080fd5b906000526020600020016000915054906101000a900473ffffffffffffffffffffffffffffffffffffffff1681565b6000819050919050565b610a4181610a2e565b82525050565b6000602082019050610a5c6000830184610a38565b92915050565b600081519050919050565b600082825260208201905092915050565b6000819050602082019050919050565b610a9781610a2e565b82525050565b600073ffffffffffffffffffffffffffffffffffffffff82169050919050565b6000610ac882610a9d565b9050919050565b610ad881610abd565b82525050565b60008115159050919050565b610af381610ade565b82525050565b60a082016000820151610b0f6000850182610a8e565b506020820151610b226020850182610acf565b506040820151610b356040850182610a8e565b506060820151610b486060850182610aea565b506080820151610b5b6080850182610a8e565b50505050565b6000610b6d8383610af9565b60a08301905092915050565b6000602082019050919050565b6000610b9182610a62565b610b9b8185610a6d565b9350610ba683610a7e565b8060005b83811015610bd7578151610bbe8882610b61565b9750610bc983610b79565b925050600181019050610baa565b5085935050505092915050565b60006020820190508181036000830152610bfe8184610b86565b905092915050565b600080fd5b610c1481610abd565b8114610c1f57600080fd5b50565b600081359050610c3181610c0b565b92915050565b610c4081610a2e565b8114610c4b57600080fd5b50565b600081359050610c5d81610c37565b92915050565b60008060408385031215610c7a57610c79610c06565b5b6000610c8885828601610c22565b9250506020610c9985828601610c4e565b9150509250929050565b600081519050919050565b600082825260208201905092915050565b6000819050602082019050919050565b6000610cda82610a9d565b9050919050565b610cea81610ccf565b82525050565b6000610cfc8383610ce1565b60208301905092915050565b6000602082019050919050565b6000610d2082610ca3565b610d2a8185610cae565b9350610d3583610cbf565b8060005b83811015610d66578151610d4d8882610cf0565b9750610d5883610d08565b925050600181019050610d39565b5085935050505092915050565b60006020820190508181036000830152610d8d8184610d15565b905092915050565b610d9e81610ccf565b8114610da957600080fd5b50565b600081359050610dbb81610d95565b92915050565b60008060408385031215610dd857610dd7610c06565b5b6000610de685828601610dac565b9250506020610df785828601610c4e565b9150509250929050565b610e0a81610ade565b82525050565b6000602082019050610e256000830184610e01565b92915050565b600060208284031215610e4157610e40610c06565b5b6000610e4f84828501610c4e565b91505092915050565b610e6181610abd565b82525050565b600060a082019050610e7c6000830188610a38565b610e896020830187610e58565b610e966040830186610a38565b610ea36060830185610e01565b610eb06080830184610a38565b9695505050505050565b610ec381610ccf565b82525050565b6000602082019050610ede6000830184610eba565b92915050565b7f4e487b7100000000000000000000000000000000000000000000000000000000600052603260045260246000fd5b7f4e487b7100000000000000000000000000000000000000000000000000000000600052601160045260246000fd5b6000610f4d82610a2e565b91507fffffffffffffffffffffffffffffffffffffffffffffffffffffffffffffffff821415610f8057610f7f610f13565b5b600182019050919050565b600082825260208201905092915050565b7f596f7520617265206e6f7420616e20617070726f766572000000000000000000600082015250565b6000610fd2601783610f8b565b9150610fdd82610f9c565b602082019050919050565b6000602082019050818103600083015261100181610fc5565b9050919050565b7f596f752063616e206f6e6c7920617070726f7665206f6e636500000000000000600082015250565b600061103e601983610f8b565b915061104982611008565b602082019050919050565b6000602082019050818103600083015261106d81611031565b9050919050565b7f416c7265616479205472616e7366657265640000000000000000000000000000600082015250565b60006110aa601283610f8b565b91506110b582611074565b602082019050919050565b600060208201905081810360008301526110d98161109d565b905091905056fea2646970667358221220ef97b20ba6274358df7ea6b5189bd2a707eca8edce341140e2af04d3c30eca2f64736f6c634300080b0033",
  "immutableReferences": {},
  "source": "// SPDX-License-Identifier: MIT\r\npragma solidity ^0.8.9;\r\n\r\ncontract ApprovalWallet{\r\n    address[] public approvers;\r\n    uint public quorum;\r\n\r\n    struct Transfer{\r\n        uint id;\r\n        address payable to;\r\n        uint amount;\r\n        bool sent;\r\n        uint noOfApprovers;\r\n    }\r\n\r\n    mapping(address => mapping(uint => bool)) public approval;\r\n    Transfer[] public transfers;\r\n\r\n    constructor(address[] memory _approvers, uint _quorum) {\r\n        approvers = _approvers;\r\n        quorum = _quorum;\r\n    }\r\n\r\n    modifier onlyApprover(){\r\n        bool isAllowed;\r\n        for(uint i; i < approvers.length; i++){\r\n            if(approvers[i] == msg.sender){\r\n                isAllowed=true;\r\n            }\r\n        }\r\n        require(isAllowed == true, \"You are not an approver\");\r\n        _;\r\n    } \r\n\r\n    function createTransfer(address payable _to, uint _amount) onlyApprover() external{\r\n        transfers.push(Transfer(\r\n            transfers.length,\r\n            _to,\r\n            _amount,\r\n            false,\r\n            0\r\n        ));\r\n    }\r\n\r\n    function approveTransfer(uint _id) onlyApprover() external{\r\n        require(approval[msg.sender][_id] == false, \"You can only approve once\");\r\n        require(transfers[_id].sent == false, \"Already Transfered\");\r\n        \r\n\r\n        approval[msg.sender][_id]=true;\r\n        transfers[_id].noOfApprovers++;\r\n\r\n        if(transfers[_id].noOfApprovers >= quorum){\r\n            transfers[_id].sent=true;\r\n            address payable _to = transfers[_id].to;\r\n            uint _amount = transfers[_id].amount;\r\n            _to.transfer(_amount);\r\n        }\r\n    }\r\n\r\n\r\n\r\n    function getApprovers() external view returns(address[] memory){\r\n        return approvers;\r\n    }\r\n\r\n    function getTransfers() external view returns(Transfer[] memory){\r\n        return transfers;\r\n    }\r\n\r\n    receive() external payable{\r\n\r\n    }\r\n}\r\n\r\n",
  "sourcePath": "E:\\Aashar\\Solidity\\Github\\MultiSigWallet\\contracts\\ApprovalWallet.sol",
  "compiler": {
    "name": "solc",
    "version": "0.8.11+commit.d7f03943.Emscripten.clang"
  },
  "schemaVersion": "3.4.4",
  "updatedAt": "2022-01-27T12:08:03.941Z",
  "networkType": "ethereum",
  "devdoc": {
    "kind": "dev",
    "methods": {},
    "version": 1
  },
  "userdoc": {
    "kind": "user",
    "methods": {},
    "version": 1
  }
}