{
  "_format": "hh-sol-artifact-1",
  "contractName": "BlockchainFlippa",
  "sourceName": "contracts/BlockchainFlippa.sol",
  "abi": [
    {
      "inputs": [
        {
          "internalType": "uint256",
          "name": "_id",
          "type": "uint256"
        },
        {
          "internalType": "string",
          "name": "_name",
          "type": "string"
        },
        {
          "internalType": "string",
          "name": "_websiteURL",
          "type": "string"
        },
        {
          "internalType": "string",
          "name": "_description",
          "type": "string"
        },
        {
          "internalType": "uint256",
          "name": "_price",
          "type": "uint256"
        },
        {
          "internalType": "uint256",
          "name": "_profitPerMonth",
          "type": "uint256"
        },
        {
          "internalType": "uint256",
          "name": "_siteAge",
          "type": "uint256"
        }
      ],
      "name": "List",
      "outputs": [],
      "stateMutability": "nonpayable",
      "type": "function"
    },
    {
      "inputs": [
        {
          "internalType": "uint256",
          "name": "",
          "type": "uint256"
        }
      ],
      "name": "allListings",
      "outputs": [
        {
          "internalType": "uint256",
          "name": "id",
          "type": "uint256"
        },
        {
          "internalType": "string",
          "name": "name",
          "type": "string"
        },
        {
          "internalType": "string",
          "name": "websiteURL",
          "type": "string"
        },
        {
          "internalType": "string",
          "name": "description",
          "type": "string"
        },
        {
          "internalType": "uint256",
          "name": "price",
          "type": "uint256"
        },
        {
          "internalType": "uint256",
          "name": "profitPerMonth",
          "type": "uint256"
        },
        {
          "internalType": "uint256",
          "name": "siteAge",
          "type": "uint256"
        },
        {
          "internalType": "bool",
          "name": "purchased",
          "type": "bool"
        },
        {
          "internalType": "bool",
          "name": "approved",
          "type": "bool"
        },
        {
          "internalType": "address",
          "name": "owner",
          "type": "address"
        }
      ],
      "stateMutability": "view",
      "type": "function"
    },
    {
      "inputs": [
        {
          "internalType": "address",
          "name": "_sellerAddress",
          "type": "address"
        },
        {
          "internalType": "uint256",
          "name": "_id",
          "type": "uint256"
        }
      ],
      "name": "buy",
      "outputs": [],
      "stateMutability": "payable",
      "type": "function"
    },
    {
      "inputs": [
        {
          "internalType": "address",
          "name": "",
          "type": "address"
        }
      ],
      "name": "buyer",
      "outputs": [
        {
          "internalType": "address",
          "name": "",
          "type": "address"
        }
      ],
      "stateMutability": "view",
      "type": "function"
    },
    {
      "inputs": [
        {
          "internalType": "address",
          "name": "_sellerAddress",
          "type": "address"
        },
        {
          "internalType": "uint256",
          "name": "_id",
          "type": "uint256"
        }
      ],
      "name": "buyerApprove",
      "outputs": [],
      "stateMutability": "payable",
      "type": "function"
    },
    {
      "inputs": [],
      "name": "getAllListing",
      "outputs": [
        {
          "components": [
            {
              "internalType": "uint256",
              "name": "id",
              "type": "uint256"
            },
            {
              "internalType": "string",
              "name": "name",
              "type": "string"
            },
            {
              "internalType": "string",
              "name": "websiteURL",
              "type": "string"
            },
            {
              "internalType": "string",
              "name": "description",
              "type": "string"
            },
            {
              "internalType": "uint256",
              "name": "price",
              "type": "uint256"
            },
            {
              "internalType": "uint256",
              "name": "profitPerMonth",
              "type": "uint256"
            },
            {
              "internalType": "uint256",
              "name": "siteAge",
              "type": "uint256"
            },
            {
              "internalType": "bool",
              "name": "purchased",
              "type": "bool"
            },
            {
              "internalType": "bool",
              "name": "approved",
              "type": "bool"
            },
            {
              "internalType": "address",
              "name": "owner",
              "type": "address"
            }
          ],
          "internalType": "struct BlockchainFlippa.Listing[]",
          "name": "",
          "type": "tuple[]"
        }
      ],
      "stateMutability": "view",
      "type": "function"
    },
    {
      "inputs": [],
      "name": "getBalance",
      "outputs": [
        {
          "internalType": "uint256",
          "name": "",
          "type": "uint256"
        }
      ],
      "stateMutability": "view",
      "type": "function"
    },
    {
      "inputs": [
        {
          "internalType": "uint256",
          "name": "",
          "type": "uint256"
        }
      ],
      "name": "sellerAddresses",
      "outputs": [
        {
          "internalType": "address",
          "name": "",
          "type": "address"
        }
      ],
      "stateMutability": "view",
      "type": "function"
    },
    {
      "inputs": [
        {
          "internalType": "address",
          "name": "",
          "type": "address"
        },
        {
          "internalType": "uint256",
          "name": "",
          "type": "uint256"
        }
      ],
      "name": "sellerListings",
      "outputs": [
        {
          "internalType": "uint256",
          "name": "id",
          "type": "uint256"
        },
        {
          "internalType": "string",
          "name": "name",
          "type": "string"
        },
        {
          "internalType": "string",
          "name": "websiteURL",
          "type": "string"
        },
        {
          "internalType": "string",
          "name": "description",
          "type": "string"
        },
        {
          "internalType": "uint256",
          "name": "price",
          "type": "uint256"
        },
        {
          "internalType": "uint256",
          "name": "profitPerMonth",
          "type": "uint256"
        },
        {
          "internalType": "uint256",
          "name": "siteAge",
          "type": "uint256"
        },
        {
          "internalType": "bool",
          "name": "purchased",
          "type": "bool"
        },
        {
          "internalType": "bool",
          "name": "approved",
          "type": "bool"
        },
        {
          "internalType": "address",
          "name": "owner",
          "type": "address"
        }
      ],
      "stateMutability": "view",
      "type": "function"
    },
    {
      "stateMutability": "payable",
      "type": "receive"
    }
  ],
  "bytecode": "0x608060405234801561001057600080fd5b50611eca806100206000396000f3fe6080604052600436106100895760003560e01c8063467efe5a11610059578063467efe5a146101755780636eb78e65146101a0578063b7748208146101dd578063cce7ec131461021a578063ec031f951461023657610090565b8062187f5614610095578063054564f0146100be5780630eeaa2ef1461010457806312065fe01461014a57610090565b3661009057005b600080fd5b3480156100a157600080fd5b506100bc60048036038101906100b79190611550565b610252565b005b3480156100ca57600080fd5b506100e560048036038101906100e091906114e3565b6105d0565b6040516100fb9a99989796959493929190611a62565b60405180910390f35b34801561011057600080fd5b5061012b60048036038101906101269190611523565b610803565b6040516101419a99989796959493929190611a62565b60405180910390f35b34801561015657600080fd5b5061015f610a39565b60405161016c9190611a47565b60405180910390f35b34801561018157600080fd5b5061018a610a41565b6040516101979190611985565b60405180910390f35b3480156101ac57600080fd5b506101c760048036038101906101c29190611523565b610d0b565b6040516101d4919061196a565b60405180910390f35b3480156101e957600080fd5b5061020460048036038101906101ff91906114b6565b610d4a565b604051610211919061196a565b60405180910390f35b610234600480360381019061022f91906114e3565b610d7d565b005b610250600480360381019061024b91906114e3565b61101a565b005b866000803373ffffffffffffffffffffffffffffffffffffffff1673ffffffffffffffffffffffffffffffffffffffff16815260200190815260200160002060008981526020019081526020016000206000015414156102e7576040517f08c379a00000000000000000000000000000000000000000000000000000000081526004016102de90611a27565b60405180910390fd5b60008060003373ffffffffffffffffffffffffffffffffffffffff1673ffffffffffffffffffffffffffffffffffffffff168152602001908152602001600020600089815260200190815260200160002090508781600001819055508681600101908051906020019061035b9291906112ec565b50858160020190805190602001906103749291906112ec565b508481600301908051906020019061038d9291906112ec565b50838160040181905550828160050181905550818160060181905550338160070160026101000a81548173ffffffffffffffffffffffffffffffffffffffff021916908373ffffffffffffffffffffffffffffffffffffffff1602179055506001339080600181540180825580915050600190039060005260206000200160009091909190916101000a81548173ffffffffffffffffffffffffffffffffffffffff021916908373ffffffffffffffffffffffffffffffffffffffff160217905550600381908060018154018082558091505060019003906000526020600020906008020160009091909190915060008201548160000155600182018160010190805461049990611c64565b6104a4929190611372565b5060028201816002019080546104b990611c64565b6104c4929190611372565b5060038201816003019080546104d990611c64565b6104e4929190611372565b506004820154816004015560058201548160050155600682015481600601556007820160009054906101000a900460ff168160070160006101000a81548160ff0219169083151502179055506007820160019054906101000a900460ff168160070160016101000a81548160ff0219169083151502179055506007820160029054906101000a900473ffffffffffffffffffffffffffffffffffffffff168160070160026101000a81548173ffffffffffffffffffffffffffffffffffffffff021916908373ffffffffffffffffffffffffffffffffffffffff16021790555050505050505050505050565b60006020528160005260406000206020528060005260406000206000915091505080600001549080600101805461060690611c64565b80601f016020809104026020016040519081016040528092919081815260200182805461063290611c64565b801561067f5780601f106106545761010080835404028352916020019161067f565b820191906000526020600020905b81548152906001019060200180831161066257829003601f168201915b50505050509080600201805461069490611c64565b80601f01602080910402602001604051908101604052809291908181526020018280546106c090611c64565b801561070d5780601f106106e25761010080835404028352916020019161070d565b820191906000526020600020905b8154815290600101906020018083116106f057829003601f168201915b50505050509080600301805461072290611c64565b80601f016020809104026020016040519081016040528092919081815260200182805461074e90611c64565b801561079b5780601f106107705761010080835404028352916020019161079b565b820191906000526020600020905b81548152906001019060200180831161077e57829003601f168201915b5050505050908060040154908060050154908060060154908060070160009054906101000a900460ff16908060070160019054906101000a900460ff16908060070160029054906101000a900473ffffffffffffffffffffffffffffffffffffffff1690508a565b6003818154811061081357600080fd5b906000526020600020906008020160009150905080600001549080600101805461083c90611c64565b80601f016020809104026020016040519081016040528092919081815260200182805461086890611c64565b80156108b55780601f1061088a576101008083540402835291602001916108b5565b820191906000526020600020905b81548152906001019060200180831161089857829003601f168201915b5050505050908060020180546108ca90611c64565b80601f01602080910402602001604051908101604052809291908181526020018280546108f690611c64565b80156109435780601f1061091857610100808354040283529160200191610943565b820191906000526020600020905b81548152906001019060200180831161092657829003601f168201915b50505050509080600301805461095890611c64565b80601f016020809104026020016040519081016040528092919081815260200182805461098490611c64565b80156109d15780601f106109a6576101008083540402835291602001916109d1565b820191906000526020600020905b8154815290600101906020018083116109b457829003601f168201915b5050505050908060040154908060050154908060060154908060070160009054906101000a900460ff16908060070160019054906101000a900460ff16908060070160029054906101000a900473ffffffffffffffffffffffffffffffffffffffff1690508a565b600047905090565b60606003805480602002602001604051908101604052809291908181526020016000905b82821015610d0257838290600052602060002090600802016040518061014001604052908160008201548152602001600182018054610aa390611c64565b80601f0160208091040260200160405190810160405280929190818152602001828054610acf90611c64565b8015610b1c5780601f10610af157610100808354040283529160200191610b1c565b820191906000526020600020905b815481529060010190602001808311610aff57829003601f168201915b50505050508152602001600282018054610b3590611c64565b80601f0160208091040260200160405190810160405280929190818152602001828054610b6190611c64565b8015610bae5780601f10610b8357610100808354040283529160200191610bae565b820191906000526020600020905b815481529060010190602001808311610b9157829003601f168201915b50505050508152602001600382018054610bc790611c64565b80601f0160208091040260200160405190810160405280929190818152602001828054610bf390611c64565b8015610c405780601f10610c1557610100808354040283529160200191610c40565b820191906000526020600020905b815481529060010190602001808311610c2357829003601f168201915b505050505081526020016004820154815260200160058201548152602001600682015481526020016007820160009054906101000a900460ff161515151581526020016007820160019054906101000a900460ff161515151581526020016007820160029054906101000a900473ffffffffffffffffffffffffffffffffffffffff1673ffffffffffffffffffffffffffffffffffffffff1673ffffffffffffffffffffffffffffffffffffffff168152505081526020019060010190610a65565b50505050905090565b60018181548110610d1b57600080fd5b906000526020600020016000915054906101000a900473ffffffffffffffffffffffffffffffffffffffff1681565b60026020528060005260406000206000915054906101000a900473ffffffffffffffffffffffffffffffffffffffff1681565b346000808473ffffffffffffffffffffffffffffffffffffffff1673ffffffffffffffffffffffffffffffffffffffff16815260200190815260200160002060008381526020019081526020016000206004015414610e11576040517f08c379a0000000000000000000000000000000000000000000000000000000008152600401610e08906119e7565b60405180910390fd5b8173ffffffffffffffffffffffffffffffffffffffff163373ffffffffffffffffffffffffffffffffffffffff161415610e80576040517f08c379a0000000000000000000000000000000000000000000000000000000008152600401610e77906119a7565b60405180910390fd5b60003073ffffffffffffffffffffffffffffffffffffffff1634604051610ea690611955565b60006040518083038185875af1925050503d8060008114610ee3576040519150601f19603f3d011682016040523d82523d6000602084013e610ee8565b606091505b5050905080610f2c576040517f08c379a0000000000000000000000000000000000000000000000000000000008152600401610f23906119c7565b60405180910390fd5b60016000808573ffffffffffffffffffffffffffffffffffffffff1673ffffffffffffffffffffffffffffffffffffffff168152602001908152602001600020600084815260200190815260200160002060070160006101000a81548160ff02191690831515021790555033600260008573ffffffffffffffffffffffffffffffffffffffff1673ffffffffffffffffffffffffffffffffffffffff16815260200190815260200160002060006101000a81548173ffffffffffffffffffffffffffffffffffffffff021916908373ffffffffffffffffffffffffffffffffffffffff160217905550505050565b3373ffffffffffffffffffffffffffffffffffffffff16600260008473ffffffffffffffffffffffffffffffffffffffff1673ffffffffffffffffffffffffffffffffffffffff16815260200190815260200160002060009054906101000a900473ffffffffffffffffffffffffffffffffffffffff1673ffffffffffffffffffffffffffffffffffffffff16146110e7576040517f08c379a00000000000000000000000000000000000000000000000000000000081526004016110de90611a07565b60405180910390fd5b60016000808473ffffffffffffffffffffffffffffffffffffffff1673ffffffffffffffffffffffffffffffffffffffff168152602001908152602001600020600083815260200190815260200160002060070160016101000a81548160ff021916908315150217905550336000808473ffffffffffffffffffffffffffffffffffffffff1673ffffffffffffffffffffffffffffffffffffffff168152602001908152602001600020600083815260200190815260200160002060070160026101000a81548173ffffffffffffffffffffffffffffffffffffffff021916908373ffffffffffffffffffffffffffffffffffffffff16021790555060008060008473ffffffffffffffffffffffffffffffffffffffff1673ffffffffffffffffffffffffffffffffffffffff168152602001908152602001600020600083815260200190815260200160002060040154905060008373ffffffffffffffffffffffffffffffffffffffff168260405161126090611955565b60006040518083038185875af1925050503d806000811461129d576040519150601f19603f3d011682016040523d82523d6000602084013e6112a2565b606091505b50509050806112e6576040517f08c379a00000000000000000000000000000000000000000000000000000000081526004016112dd906119c7565b60405180910390fd5b50505050565b8280546112f890611c64565b90600052602060002090601f01602090048101928261131a5760008555611361565b82601f1061133357805160ff1916838001178555611361565b82800160010185558215611361579182015b82811115611360578251825591602001919060010190611345565b5b50905061136e91906113ff565b5090565b82805461137e90611c64565b90600052602060002090601f0160209004810192826113a057600085556113ee565b82601f106113b157805485556113ee565b828001600101855582156113ee57600052602060002091601f016020900482015b828111156113ed5782548255916001019190600101906113d2565b5b5090506113fb91906113ff565b5090565b5b80821115611418576000816000905550600101611400565b5090565b600061142f61142a84611b38565b611b13565b90508281526020810184848401111561144b5761144a611d2a565b5b611456848285611c22565b509392505050565b60008135905061146d81611e66565b92915050565b600082601f83011261148857611487611d25565b5b813561149884826020860161141c565b91505092915050565b6000813590506114b081611e7d565b92915050565b6000602082840312156114cc576114cb611d34565b5b60006114da8482850161145e565b91505092915050565b600080604083850312156114fa576114f9611d34565b5b60006115088582860161145e565b9250506020611519858286016114a1565b9150509250929050565b60006020828403121561153957611538611d34565b5b6000611547848285016114a1565b91505092915050565b600080600080600080600060e0888a03121561156f5761156e611d34565b5b600061157d8a828b016114a1565b975050602088013567ffffffffffffffff81111561159e5761159d611d2f565b5b6115aa8a828b01611473565b965050604088013567ffffffffffffffff8111156115cb576115ca611d2f565b5b6115d78a828b01611473565b955050606088013567ffffffffffffffff8111156115f8576115f7611d2f565b5b6116048a828b01611473565b94505060806116158a828b016114a1565b93505060a06116268a828b016114a1565b92505060c06116378a828b016114a1565b91505092959891949750929550565b6000611652838361184f565b905092915050565b61166381611bda565b82525050565b61167281611bda565b82525050565b600061168382611b79565b61168d8185611b9c565b93508360208202850161169f85611b69565b8060005b858110156116db57848403895281516116bc8582611646565b94506116c783611b8f565b925060208a019950506001810190506116a3565b50829750879550505050505092915050565b6116f681611bec565b82525050565b61170581611bec565b82525050565b600061171682611b84565b6117208185611bb8565b9350611730818560208601611c31565b61173981611d39565b840191505092915050565b600061174f82611b84565b6117598185611bc9565b9350611769818560208601611c31565b61177281611d39565b840191505092915050565b600061178a602b83611bc9565b915061179582611d4a565b604082019050919050565b60006117ad601483611bc9565b91506117b882611d99565b602082019050919050565b60006117d0600b83611bc9565b91506117db82611dc2565b602082019050919050565b60006117f3601e83611bc9565b91506117fe82611deb565b602082019050919050565b6000611816602883611bc9565b915061182182611e14565b604082019050919050565b6000611839600083611bad565b915061184482611e63565b600082019050919050565b6000610140830160008301516118686000860182611937565b5060208301518482036020860152611880828261170b565b9150506040830151848203604086015261189a828261170b565b915050606083015184820360608601526118b4828261170b565b91505060808301516118c96080860182611937565b5060a08301516118dc60a0860182611937565b5060c08301516118ef60c0860182611937565b5060e083015161190260e08601826116ed565b506101008301516119176101008601826116ed565b5061012083015161192c61012086018261165a565b508091505092915050565b61194081611c18565b82525050565b61194f81611c18565b82525050565b60006119608261182c565b9150819050919050565b600060208201905061197f6000830184611669565b92915050565b6000602082019050818103600083015261199f8184611678565b905092915050565b600060208201905081810360008301526119c08161177d565b9050919050565b600060208201905081810360008301526119e0816117a0565b9050919050565b60006020820190508181036000830152611a00816117c3565b9050919050565b60006020820190508181036000830152611a20816117e6565b9050919050565b60006020820190508181036000830152611a4081611809565b9050919050565b6000602082019050611a5c6000830184611946565b92915050565b600061014082019050611a78600083018d611946565b8181036020830152611a8a818c611744565b90508181036040830152611a9e818b611744565b90508181036060830152611ab2818a611744565b9050611ac16080830189611946565b611ace60a0830188611946565b611adb60c0830187611946565b611ae860e08301866116fc565b611af66101008301856116fc565b611b04610120830184611669565b9b9a5050505050505050505050565b6000611b1d611b2e565b9050611b298282611c96565b919050565b6000604051905090565b600067ffffffffffffffff821115611b5357611b52611cf6565b5b611b5c82611d39565b9050602081019050919050565b6000819050602082019050919050565b600081519050919050565b600081519050919050565b6000602082019050919050565b600082825260208201905092915050565b600081905092915050565b600082825260208201905092915050565b600082825260208201905092915050565b6000611be582611bf8565b9050919050565b60008115159050919050565b600073ffffffffffffffffffffffffffffffffffffffff82169050919050565b6000819050919050565b82818337600083830152505050565b60005b83811015611c4f578082015181840152602081019050611c34565b83811115611c5e576000848401525b50505050565b60006002820490506001821680611c7c57607f821691505b60208210811415611c9057611c8f611cc7565b5b50919050565b611c9f82611d39565b810181811067ffffffffffffffff82111715611cbe57611cbd611cf6565b5b80604052505050565b7f4e487b7100000000000000000000000000000000000000000000000000000000600052602260045260246000fd5b7f4e487b7100000000000000000000000000000000000000000000000000000000600052604160045260246000fd5b600080fd5b600080fd5b600080fd5b600080fd5b6000601f19601f8301169050919050565b7f4865792044756d626173732c20596f752063616e27742062757920796f75722060008201527f6f776e204c697374696e67000000000000000000000000000000000000000000602082015250565b7f4661696c656420746f2073656e64204574686572000000000000000000000000600082015250565b7f57726f6e67205072696365000000000000000000000000000000000000000000600082015250565b7f486168612120596f7520617265206e6f742074686520417070726f7665720000600082015250565b7f54686520496420697320616c726561647920696e207573652e20506c6561736560008201527f204368616e676520000000000000000000000000000000000000000000000000602082015250565b50565b611e6f81611bda565b8114611e7a57600080fd5b50565b611e8681611c18565b8114611e9157600080fd5b5056fea2646970667358221220ee7c7a9e81f93f2898a6086b059db2e343e81f903a20e288bfe2510750d54adf64736f6c63430008070033",
  "linkReferences": {},
  "deployedLinkReferences": {}
}