{
  "_format": "hh-sol-artifact-1",
  "contractName": "MyContract",
  "sourceName": "contracts/BlockchainFlippa.sol",
  "abi": [
    {
      "inputs": [
        {
          "internalType": "uint256",
          "name": "_id",
          "type": "uint256"
        },
        {
          "internalType": "string",
          "name": "_name",
          "type": "string"
        },
        {
          "internalType": "string",
          "name": "_websiteURL",
          "type": "string"
        },
        {
          "internalType": "string",
          "name": "_description",
          "type": "string"
        },
        {
          "internalType": "uint256",
          "name": "_price",
          "type": "uint256"
        },
        {
          "internalType": "uint256",
          "name": "_profitPerMonth",
          "type": "uint256"
        },
        {
          "internalType": "uint256",
          "name": "_siteAge",
          "type": "uint256"
        }
      ],
      "name": "List",
      "outputs": [],
      "stateMutability": "nonpayable",
      "type": "function"
    },
    {
      "inputs": [
        {
          "internalType": "address",
          "name": "_sellerAddress",
          "type": "address"
        },
        {
          "internalType": "uint256",
          "name": "_id",
          "type": "uint256"
        }
      ],
      "name": "buy",
      "outputs": [],
      "stateMutability": "payable",
      "type": "function"
    },
    {
      "inputs": [
        {
          "internalType": "address",
          "name": "",
          "type": "address"
        }
      ],
      "name": "buyer",
      "outputs": [
        {
          "internalType": "address",
          "name": "",
          "type": "address"
        }
      ],
      "stateMutability": "view",
      "type": "function"
    },
    {
      "inputs": [
        {
          "internalType": "address",
          "name": "_sellerAddress",
          "type": "address"
        },
        {
          "internalType": "uint256",
          "name": "_id",
          "type": "uint256"
        }
      ],
      "name": "buyerApprove",
      "outputs": [],
      "stateMutability": "payable",
      "type": "function"
    },
    {
      "inputs": [],
      "name": "getBalance",
      "outputs": [
        {
          "internalType": "uint256",
          "name": "",
          "type": "uint256"
        }
      ],
      "stateMutability": "view",
      "type": "function"
    },
    {
      "inputs": [
        {
          "internalType": "uint256",
          "name": "",
          "type": "uint256"
        }
      ],
      "name": "sellerAddresses",
      "outputs": [
        {
          "internalType": "address",
          "name": "",
          "type": "address"
        }
      ],
      "stateMutability": "view",
      "type": "function"
    },
    {
      "inputs": [
        {
          "internalType": "address",
          "name": "",
          "type": "address"
        },
        {
          "internalType": "uint256",
          "name": "",
          "type": "uint256"
        }
      ],
      "name": "sellerListings",
      "outputs": [
        {
          "internalType": "uint256",
          "name": "id",
          "type": "uint256"
        },
        {
          "internalType": "string",
          "name": "name",
          "type": "string"
        },
        {
          "internalType": "string",
          "name": "websiteURL",
          "type": "string"
        },
        {
          "internalType": "string",
          "name": "description",
          "type": "string"
        },
        {
          "internalType": "uint256",
          "name": "price",
          "type": "uint256"
        },
        {
          "internalType": "uint256",
          "name": "profitPerMonth",
          "type": "uint256"
        },
        {
          "internalType": "uint256",
          "name": "siteAge",
          "type": "uint256"
        },
        {
          "internalType": "bool",
          "name": "purchased",
          "type": "bool"
        },
        {
          "internalType": "bool",
          "name": "approved",
          "type": "bool"
        },
        {
          "internalType": "address",
          "name": "owner",
          "type": "address"
        }
      ],
      "stateMutability": "view",
      "type": "function"
    },
    {
      "stateMutability": "payable",
      "type": "receive"
    }
  ],
  "bytecode": "0x608060405234801561001057600080fd5b506113d5806100206000396000f3fe6080604052600436106100735760003560e01c80636eb78e651161004e5780636eb78e6514610119578063b774820814610156578063cce7ec1314610193578063ec031f95146101af5761007a565b8062187f561461007f578063054564f0146100a857806312065fe0146100ee5761007a565b3661007a57005b600080fd5b34801561008b57600080fd5b506100a660048036038101906100a19190610d30565b6101cb565b005b3480156100b457600080fd5b506100cf60048036038101906100ca9190610cc3565b61033d565b6040516100e59a99989796959493929190611006565b60405180910390f35b3480156100fa57600080fd5b50610103610570565b6040516101109190610feb565b60405180910390f35b34801561012557600080fd5b50610140600480360381019061013b9190610d03565b610578565b60405161014d9190610f50565b60405180910390f35b34801561016257600080fd5b5061017d60048036038101906101789190610c96565b6105b7565b60405161018a9190610f50565b60405180910390f35b6101ad60048036038101906101a89190610cc3565b6105ea565b005b6101c960048036038101906101c49190610cc3565b610887565b005b60008060003373ffffffffffffffffffffffffffffffffffffffff1673ffffffffffffffffffffffffffffffffffffffff168152602001908152602001600020600089815260200190815260200160002090508781600001819055508681600101908051906020019061023f929190610b59565b5085816002019080519060200190610258929190610b59565b5084816003019080519060200190610271929190610b59565b50838160040181905550828160050181905550818160060181905550338160070160026101000a81548173ffffffffffffffffffffffffffffffffffffffff021916908373ffffffffffffffffffffffffffffffffffffffff1602179055506001339080600181540180825580915050600190039060005260206000200160009091909190916101000a81548173ffffffffffffffffffffffffffffffffffffffff021916908373ffffffffffffffffffffffffffffffffffffffff1602179055505050505050505050565b600060205281600052604060002060205280600052604060002060009150915050806000015490806001018054610373906111be565b80601f016020809104026020016040519081016040528092919081815260200182805461039f906111be565b80156103ec5780601f106103c1576101008083540402835291602001916103ec565b820191906000526020600020905b8154815290600101906020018083116103cf57829003601f168201915b505050505090806002018054610401906111be565b80601f016020809104026020016040519081016040528092919081815260200182805461042d906111be565b801561047a5780601f1061044f5761010080835404028352916020019161047a565b820191906000526020600020905b81548152906001019060200180831161045d57829003601f168201915b50505050509080600301805461048f906111be565b80601f01602080910402602001604051908101604052809291908181526020018280546104bb906111be565b80156105085780601f106104dd57610100808354040283529160200191610508565b820191906000526020600020905b8154815290600101906020018083116104eb57829003601f168201915b5050505050908060040154908060050154908060060154908060070160009054906101000a900460ff16908060070160019054906101000a900460ff16908060070160029054906101000a900473ffffffffffffffffffffffffffffffffffffffff1690508a565b600047905090565b6001818154811061058857600080fd5b906000526020600020016000915054906101000a900473ffffffffffffffffffffffffffffffffffffffff1681565b60026020528060005260406000206000915054906101000a900473ffffffffffffffffffffffffffffffffffffffff1681565b346000808473ffffffffffffffffffffffffffffffffffffffff1673ffffffffffffffffffffffffffffffffffffffff1681526020019081526020016000206000838152602001908152602001600020600401541461067e576040517f08c379a000000000000000000000000000000000000000000000000000000000815260040161067590610fab565b60405180910390fd5b8173ffffffffffffffffffffffffffffffffffffffff163373ffffffffffffffffffffffffffffffffffffffff1614156106ed576040517f08c379a00000000000000000000000000000000000000000000000000000000081526004016106e490610f6b565b60405180910390fd5b60003073ffffffffffffffffffffffffffffffffffffffff163460405161071390610f3b565b60006040518083038185875af1925050503d8060008114610750576040519150601f19603f3d011682016040523d82523d6000602084013e610755565b606091505b5050905080610799576040517f08c379a000000000000000000000000000000000000000000000000000000000815260040161079090610f8b565b60405180910390fd5b60016000808573ffffffffffffffffffffffffffffffffffffffff1673ffffffffffffffffffffffffffffffffffffffff168152602001908152602001600020600084815260200190815260200160002060070160006101000a81548160ff02191690831515021790555033600260008573ffffffffffffffffffffffffffffffffffffffff1673ffffffffffffffffffffffffffffffffffffffff16815260200190815260200160002060006101000a81548173ffffffffffffffffffffffffffffffffffffffff021916908373ffffffffffffffffffffffffffffffffffffffff160217905550505050565b3373ffffffffffffffffffffffffffffffffffffffff16600260008473ffffffffffffffffffffffffffffffffffffffff1673ffffffffffffffffffffffffffffffffffffffff16815260200190815260200160002060009054906101000a900473ffffffffffffffffffffffffffffffffffffffff1673ffffffffffffffffffffffffffffffffffffffff1614610954576040517f08c379a000000000000000000000000000000000000000000000000000000000815260040161094b90610fcb565b60405180910390fd5b60016000808473ffffffffffffffffffffffffffffffffffffffff1673ffffffffffffffffffffffffffffffffffffffff168152602001908152602001600020600083815260200190815260200160002060070160016101000a81548160ff021916908315150217905550336000808473ffffffffffffffffffffffffffffffffffffffff1673ffffffffffffffffffffffffffffffffffffffff168152602001908152602001600020600083815260200190815260200160002060070160026101000a81548173ffffffffffffffffffffffffffffffffffffffff021916908373ffffffffffffffffffffffffffffffffffffffff16021790555060008060008473ffffffffffffffffffffffffffffffffffffffff1673ffffffffffffffffffffffffffffffffffffffff168152602001908152602001600020600083815260200190815260200160002060040154905060008373ffffffffffffffffffffffffffffffffffffffff1682604051610acd90610f3b565b60006040518083038185875af1925050503d8060008114610b0a576040519150601f19603f3d011682016040523d82523d6000602084013e610b0f565b606091505b5050905080610b53576040517f08c379a0000000000000000000000000000000000000000000000000000000008152600401610b4a90610f8b565b60405180910390fd5b50505050565b828054610b65906111be565b90600052602060002090601f016020900481019282610b875760008555610bce565b82601f10610ba057805160ff1916838001178555610bce565b82800160010185558215610bce579182015b82811115610bcd578251825591602001919060010190610bb2565b5b509050610bdb9190610bdf565b5090565b5b80821115610bf8576000816000905550600101610be0565b5090565b6000610c0f610c0a846110dc565b6110b7565b905082815260208101848484011115610c2b57610c2a611284565b5b610c3684828561117c565b509392505050565b600081359050610c4d81611371565b92915050565b600082601f830112610c6857610c6761127f565b5b8135610c78848260208601610bfc565b91505092915050565b600081359050610c9081611388565b92915050565b600060208284031215610cac57610cab61128e565b5b6000610cba84828501610c3e565b91505092915050565b60008060408385031215610cda57610cd961128e565b5b6000610ce885828601610c3e565b9250506020610cf985828601610c81565b9150509250929050565b600060208284031215610d1957610d1861128e565b5b6000610d2784828501610c81565b91505092915050565b600080600080600080600060e0888a031215610d4f57610d4e61128e565b5b6000610d5d8a828b01610c81565b975050602088013567ffffffffffffffff811115610d7e57610d7d611289565b5b610d8a8a828b01610c53565b965050604088013567ffffffffffffffff811115610dab57610daa611289565b5b610db78a828b01610c53565b955050606088013567ffffffffffffffff811115610dd857610dd7611289565b5b610de48a828b01610c53565b9450506080610df58a828b01610c81565b93505060a0610e068a828b01610c81565b92505060c0610e178a828b01610c81565b91505092959891949750929550565b610e2f81611134565b82525050565b610e3e81611146565b82525050565b6000610e4f8261110d565b610e598185611123565b9350610e6981856020860161118b565b610e7281611293565b840191505092915050565b6000610e8a602b83611123565b9150610e95826112a4565b604082019050919050565b6000610ead601483611123565b9150610eb8826112f3565b602082019050919050565b6000610ed0600b83611123565b9150610edb8261131c565b602082019050919050565b6000610ef3601e83611123565b9150610efe82611345565b602082019050919050565b6000610f16600083611118565b9150610f218261136e565b600082019050919050565b610f3581611172565b82525050565b6000610f4682610f09565b9150819050919050565b6000602082019050610f656000830184610e26565b92915050565b60006020820190508181036000830152610f8481610e7d565b9050919050565b60006020820190508181036000830152610fa481610ea0565b9050919050565b60006020820190508181036000830152610fc481610ec3565b9050919050565b60006020820190508181036000830152610fe481610ee6565b9050919050565b60006020820190506110006000830184610f2c565b92915050565b60006101408201905061101c600083018d610f2c565b818103602083015261102e818c610e44565b90508181036040830152611042818b610e44565b90508181036060830152611056818a610e44565b90506110656080830189610f2c565b61107260a0830188610f2c565b61107f60c0830187610f2c565b61108c60e0830186610e35565b61109a610100830185610e35565b6110a8610120830184610e26565b9b9a5050505050505050505050565b60006110c16110d2565b90506110cd82826111f0565b919050565b6000604051905090565b600067ffffffffffffffff8211156110f7576110f6611250565b5b61110082611293565b9050602081019050919050565b600081519050919050565b600081905092915050565b600082825260208201905092915050565b600061113f82611152565b9050919050565b60008115159050919050565b600073ffffffffffffffffffffffffffffffffffffffff82169050919050565b6000819050919050565b82818337600083830152505050565b60005b838110156111a957808201518184015260208101905061118e565b838111156111b8576000848401525b50505050565b600060028204905060018216806111d657607f821691505b602082108114156111ea576111e9611221565b5b50919050565b6111f982611293565b810181811067ffffffffffffffff8211171561121857611217611250565b5b80604052505050565b7f4e487b7100000000000000000000000000000000000000000000000000000000600052602260045260246000fd5b7f4e487b7100000000000000000000000000000000000000000000000000000000600052604160045260246000fd5b600080fd5b600080fd5b600080fd5b600080fd5b6000601f19601f8301169050919050565b7f4865792044756d626173732c20596f752063616e27742062757920796f75722060008201527f6f776e204c697374696e67000000000000000000000000000000000000000000602082015250565b7f4661696c656420746f2073656e64204574686572000000000000000000000000600082015250565b7f57726f6e67205072696365000000000000000000000000000000000000000000600082015250565b7f486168612120596f7520617265206e6f742074686520417070726f7665720000600082015250565b50565b61137a81611134565b811461138557600080fd5b50565b61139181611172565b811461139c57600080fd5b5056fea2646970667358221220c332792fe31bb22103166e06d3c9ac7d8a87e3f43d707e9fbaa1dfc306ff31fd64736f6c63430008070033",
  "linkReferences": {},
  "deployedLinkReferences": {}
}