{
  "contractName": "SharedWallet",
  "abi": [
    {
      "inputs": [],
      "stateMutability": "nonpayable",
      "type": "constructor"
    },
    {
      "anonymous": false,
      "inputs": [
        {
          "indexed": true,
          "internalType": "address",
          "name": "_byWhom",
          "type": "address"
        },
        {
          "indexed": true,
          "internalType": "address",
          "name": "_forWho",
          "type": "address"
        },
        {
          "indexed": false,
          "internalType": "uint256",
          "name": "_oldAllowance",
          "type": "uint256"
        },
        {
          "indexed": false,
          "internalType": "uint256",
          "name": "_newAllowance",
          "type": "uint256"
        }
      ],
      "name": "AllowanceChanged",
      "type": "event"
    },
    {
      "anonymous": false,
      "inputs": [
        {
          "indexed": true,
          "internalType": "address",
          "name": "_from",
          "type": "address"
        },
        {
          "indexed": false,
          "internalType": "uint256",
          "name": "_amount",
          "type": "uint256"
        }
      ],
      "name": "EthReceived",
      "type": "event"
    },
    {
      "anonymous": false,
      "inputs": [
        {
          "indexed": true,
          "internalType": "address",
          "name": "_from",
          "type": "address"
        },
        {
          "indexed": true,
          "internalType": "address",
          "name": "_to",
          "type": "address"
        },
        {
          "indexed": false,
          "internalType": "uint256",
          "name": "_amount",
          "type": "uint256"
        }
      ],
      "name": "EthSent",
      "type": "event"
    },
    {
      "inputs": [],
      "name": "owner",
      "outputs": [
        {
          "internalType": "address",
          "name": "",
          "type": "address"
        }
      ],
      "stateMutability": "view",
      "type": "function",
      "constant": true
    },
    {
      "stateMutability": "payable",
      "type": "receive",
      "payable": true
    },
    {
      "inputs": [],
      "name": "getOwner",
      "outputs": [
        {
          "internalType": "address",
          "name": "",
          "type": "address"
        }
      ],
      "stateMutability": "view",
      "type": "function",
      "constant": true
    },
    {
      "inputs": [],
      "name": "getBalanceInSmartContract",
      "outputs": [
        {
          "internalType": "uint256",
          "name": "",
          "type": "uint256"
        }
      ],
      "stateMutability": "view",
      "type": "function",
      "constant": true
    },
    {
      "inputs": [
        {
          "internalType": "address",
          "name": "_addr",
          "type": "address"
        }
      ],
      "name": "getBalance",
      "outputs": [
        {
          "internalType": "uint256",
          "name": "",
          "type": "uint256"
        }
      ],
      "stateMutability": "view",
      "type": "function",
      "constant": true
    },
    {
      "inputs": [
        {
          "internalType": "address",
          "name": "_spender",
          "type": "address"
        }
      ],
      "name": "getAllowance",
      "outputs": [
        {
          "internalType": "uint256",
          "name": "",
          "type": "uint256"
        }
      ],
      "stateMutability": "view",
      "type": "function",
      "constant": true
    },
    {
      "inputs": [
        {
          "internalType": "address payable",
          "name": "_to",
          "type": "address"
        },
        {
          "internalType": "uint256",
          "name": "_amount",
          "type": "uint256"
        }
      ],
      "name": "withdrawEth",
      "outputs": [],
      "stateMutability": "nonpayable",
      "type": "function"
    },
    {
      "inputs": [
        {
          "internalType": "address",
          "name": "_to",
          "type": "address"
        },
        {
          "internalType": "uint256",
          "name": "_amount",
          "type": "uint256"
        }
      ],
      "name": "setAllowance",
      "outputs": [],
      "stateMutability": "nonpayable",
      "type": "function"
    }
  ],
  "bytecode": "0x608060405234801561001057600080fd5b50336000806101000a81548173ffffffffffffffffffffffffffffffffffffffff021916908373ffffffffffffffffffffffffffffffffffffffff160217905550610bbb806100606000396000f3fe6080604052600436106100745760003560e01c8063893d20e81161004e578063893d20e81461014b5780638da5cb5b14610176578063eb5a662e146101a1578063f8b2cb4f146101de576100c9565b80631b9a91a4146100ce578063310ec4a7146100f75780636f1855bb14610120576100c9565b366100c9573373ffffffffffffffffffffffffffffffffffffffff167f85177f287940f2f05425a4029951af0e047a7f9c4eaa9a6e6917bcd869f86695346040516100bf91906107bf565b60405180910390a2005b600080fd5b3480156100da57600080fd5b506100f560048036038101906100f09190610869565b61021b565b005b34801561010357600080fd5b5061011e600480360381019061011991906108e7565b6104b4565b005b34801561012c57600080fd5b506101356106aa565b60405161014291906107bf565b60405180910390f35b34801561015757600080fd5b506101606106b2565b60405161016d9190610936565b60405180910390f35b34801561018257600080fd5b5061018b6106db565b6040516101989190610936565b60405180910390f35b3480156101ad57600080fd5b506101c860048036038101906101c39190610951565b6106ff565b6040516101d591906107bf565b60405180910390f35b3480156101ea57600080fd5b5061020560048036038101906102009190610951565b610785565b60405161021291906107bf565b60405180910390f35b4781111561025e576040517f08c379a0000000000000000000000000000000000000000000000000000000008152600401610255906109db565b60405180910390fd5b3373ffffffffffffffffffffffffffffffffffffffff1660008054906101000a900473ffffffffffffffffffffffffffffffffffffffff1673ffffffffffffffffffffffffffffffffffffffff161461040457600160003073ffffffffffffffffffffffffffffffffffffffff1673ffffffffffffffffffffffffffffffffffffffff16815260200190815260200160002060003373ffffffffffffffffffffffffffffffffffffffff1673ffffffffffffffffffffffffffffffffffffffff16815260200190815260200160002054811115610370576040517f08c379a000000000000000000000000000000000000000000000000000000000815260040161036790610a6d565b60405180910390fd5b80600160003073ffffffffffffffffffffffffffffffffffffffff1673ffffffffffffffffffffffffffffffffffffffff16815260200190815260200160002060003373ffffffffffffffffffffffffffffffffffffffff1673ffffffffffffffffffffffffffffffffffffffff16815260200190815260200160002060008282546103fc9190610abc565b925050819055505b8173ffffffffffffffffffffffffffffffffffffffff163373ffffffffffffffffffffffffffffffffffffffff167fca3a24d155af841a817f7f643338faccb74b7c930ce1a2698d66dc42c3041dd68360405161046191906107bf565b60405180910390a38173ffffffffffffffffffffffffffffffffffffffff166108fc829081150290604051600060405180830381858888f193505050501580156104af573d6000803e3d6000fd5b505050565b3373ffffffffffffffffffffffffffffffffffffffff1660008054906101000a900473ffffffffffffffffffffffffffffffffffffffff1673ffffffffffffffffffffffffffffffffffffffff1614610542576040517f08c379a000000000000000000000000000000000000000000000000000000000815260040161053990610b3c565b60405180910390fd5b8173ffffffffffffffffffffffffffffffffffffffff163373ffffffffffffffffffffffffffffffffffffffff167f3691d1a86d99355e52b689ca70a7bdf6d80763237a6aa06e5fa43964eac7244b600160003073ffffffffffffffffffffffffffffffffffffffff1673ffffffffffffffffffffffffffffffffffffffff16815260200190815260200160002060008673ffffffffffffffffffffffffffffffffffffffff1673ffffffffffffffffffffffffffffffffffffffff168152602001908152602001600020548460405161061d929190610b5c565b60405180910390a380600160003073ffffffffffffffffffffffffffffffffffffffff1673ffffffffffffffffffffffffffffffffffffffff16815260200190815260200160002060008473ffffffffffffffffffffffffffffffffffffffff1673ffffffffffffffffffffffffffffffffffffffff168152602001908152602001600020819055505050565b600047905090565b60008060009054906101000a900473ffffffffffffffffffffffffffffffffffffffff16905090565b60008054906101000a900473ffffffffffffffffffffffffffffffffffffffff1681565b6000600160003073ffffffffffffffffffffffffffffffffffffffff1673ffffffffffffffffffffffffffffffffffffffff16815260200190815260200160002060008373ffffffffffffffffffffffffffffffffffffffff1673ffffffffffffffffffffffffffffffffffffffff168152602001908152602001600020549050919050565b60008173ffffffffffffffffffffffffffffffffffffffff16319050919050565b6000819050919050565b6107b9816107a6565b82525050565b60006020820190506107d460008301846107b0565b92915050565b600080fd5b600073ffffffffffffffffffffffffffffffffffffffff82169050919050565b600061080a826107df565b9050919050565b61081a816107ff565b811461082557600080fd5b50565b60008135905061083781610811565b92915050565b610846816107a6565b811461085157600080fd5b50565b6000813590506108638161083d565b92915050565b600080604083850312156108805761087f6107da565b5b600061088e85828601610828565b925050602061089f85828601610854565b9150509250929050565b60006108b4826107df565b9050919050565b6108c4816108a9565b81146108cf57600080fd5b50565b6000813590506108e1816108bb565b92915050565b600080604083850312156108fe576108fd6107da565b5b600061090c858286016108d2565b925050602061091d85828601610854565b9150509250929050565b610930816108a9565b82525050565b600060208201905061094b6000830184610927565b92915050565b600060208284031215610967576109666107da565b5b6000610975848285016108d2565b91505092915050565b600082825260208201905092915050565b7f4e6f7420656e6f7567682062616c616e636520696e207468652057616c6c6574600082015250565b60006109c560208361097e565b91506109d08261098f565b602082019050919050565b600060208201905081810360008301526109f4816109b8565b9050919050565b7f596f7520617265206e6f7420616c6c6f77656420746f207370656e642074686160008201527f74206d7563682100000000000000000000000000000000000000000000000000602082015250565b6000610a5760278361097e565b9150610a62826109fb565b604082019050919050565b60006020820190508181036000830152610a8681610a4a565b9050919050565b7f4e487b7100000000000000000000000000000000000000000000000000000000600052601160045260246000fd5b6000610ac7826107a6565b9150610ad2836107a6565b925082821015610ae557610ae4610a8d565b5b828203905092915050565b7f596f7520617265206e6f7420746865206f776e65720000000000000000000000600082015250565b6000610b2660158361097e565b9150610b3182610af0565b602082019050919050565b60006020820190508181036000830152610b5581610b19565b9050919050565b6000604082019050610b7160008301856107b0565b610b7e60208301846107b0565b939250505056fea26469706673582212204120dda9a44035e62d898675bbcfed1c277d73c9c65695576070fbf2e1825e4e64736f6c634300080b0033",
  "immutableReferences": {},
  "source": "// SPDX-License-Identifier: GPL-3.0\r\npragma solidity ^0.8.9;\r\n\r\ncontract SharedWallet{\r\n    address public owner;\r\n    mapping(address => mapping(address => uint)) allowance;\r\n\r\n    event EthReceived(address indexed _from, uint _amount);\r\n    event AllowanceChanged(address indexed _byWhom, address indexed _forWho, uint _oldAllowance, uint _newAllowance);\r\n    event EthSent(address indexed _from, address indexed _to, uint _amount);\r\n\r\n    constructor(){\r\n        owner=msg.sender;\r\n    }\r\n\r\n    function getOwner() public view returns(address){\r\n        return owner;\r\n    }\r\n\r\n    function getBalanceInSmartContract() public view returns(uint){\r\n        return address(this).balance;\r\n    }\r\n\r\n    function getBalance(address _addr) public view returns(uint){\r\n        return _addr.balance;\r\n    }\r\n\r\n    function getAllowance(address _spender) public view returns(uint){\r\n        return allowance[address(this)][_spender];\r\n    }\r\n\r\n    function withdrawEth(address payable _to, uint _amount) public{\r\n        require(_amount <= address(this).balance, \"Not enough balance in the Wallet\");\r\n        if(owner!= msg.sender){\r\n            require(_amount <= allowance[address(this)][msg.sender], \"You are not allowed to spend that much!\");\r\n            allowance[address(this)][msg.sender] -= _amount;\r\n        }\r\n        emit EthSent(msg.sender,_to, _amount);\r\n        _to.transfer(_amount);\r\n    }\r\n\r\n    function setAllowance(address _to, uint _amount) public{\r\n        require(owner == msg.sender, \"You are not the owner\");\r\n        emit AllowanceChanged(msg.sender, _to, allowance[address(this)][_to], _amount);\r\n        allowance[address(this)][_to] = _amount;\r\n    }\r\n\r\n    receive () external payable{\r\n        emit EthReceived(msg.sender,msg.value);\r\n    }\r\n}",
  "sourcePath": "E:\\Aashar\\Solidity\\SharedWallet\\contracts\\SharedWallet.sol",
  "compiler": {
    "name": "solc",
    "version": "0.8.11+commit.d7f03943.Emscripten.clang"
  },
  "schemaVersion": "3.4.4",
  "updatedAt": "2022-01-07T03:48:00.622Z",
  "networkType": "ethereum",
  "devdoc": {
    "kind": "dev",
    "methods": {},
    "version": 1
  },
  "userdoc": {
    "kind": "user",
    "methods": {},
    "version": 1
  }
}